{
  "_format": "hh-sol-artifact-1",
  "contractName": "Persona",
  "sourceName": "contracts/Persona.sol",
  "abi": [
    {
      "inputs": [],
      "stateMutability": "nonpayable",
      "type": "constructor"
    },
    {
      "inputs": [
        {
          "internalType": "address",
          "name": "sender",
          "type": "address"
        },
        {
          "internalType": "uint256",
          "name": "tokenId",
          "type": "uint256"
        },
        {
          "internalType": "address",
          "name": "owner",
          "type": "address"
        }
      ],
      "name": "ERC721IncorrectOwner",
      "type": "error"
    },
    {
      "inputs": [
        {
          "internalType": "address",
          "name": "operator",
          "type": "address"
        },
        {
          "internalType": "uint256",
          "name": "tokenId",
          "type": "uint256"
        }
      ],
      "name": "ERC721InsufficientApproval",
      "type": "error"
    },
    {
      "inputs": [
        {
          "internalType": "address",
          "name": "approver",
          "type": "address"
        }
      ],
      "name": "ERC721InvalidApprover",
      "type": "error"
    },
    {
      "inputs": [
        {
          "internalType": "address",
          "name": "operator",
          "type": "address"
        }
      ],
      "name": "ERC721InvalidOperator",
      "type": "error"
    },
    {
      "inputs": [
        {
          "internalType": "address",
          "name": "owner",
          "type": "address"
        }
      ],
      "name": "ERC721InvalidOwner",
      "type": "error"
    },
    {
      "inputs": [
        {
          "internalType": "address",
          "name": "receiver",
          "type": "address"
        }
      ],
      "name": "ERC721InvalidReceiver",
      "type": "error"
    },
    {
      "inputs": [
        {
          "internalType": "address",
          "name": "sender",
          "type": "address"
        }
      ],
      "name": "ERC721InvalidSender",
      "type": "error"
    },
    {
      "inputs": [
        {
          "internalType": "uint256",
          "name": "tokenId",
          "type": "uint256"
        }
      ],
      "name": "ERC721NonexistentToken",
      "type": "error"
    },
    {
      "inputs": [
        {
          "internalType": "address",
          "name": "owner",
          "type": "address"
        }
      ],
      "name": "OwnableInvalidOwner",
      "type": "error"
    },
    {
      "inputs": [
        {
          "internalType": "address",
          "name": "account",
          "type": "address"
        }
      ],
      "name": "OwnableUnauthorizedAccount",
      "type": "error"
    },
    {
      "anonymous": false,
      "inputs": [
        {
          "indexed": true,
          "internalType": "address",
          "name": "owner",
          "type": "address"
        },
        {
          "indexed": true,
          "internalType": "address",
          "name": "approved",
          "type": "address"
        },
        {
          "indexed": true,
          "internalType": "uint256",
          "name": "tokenId",
          "type": "uint256"
        }
      ],
      "name": "Approval",
      "type": "event"
    },
    {
      "anonymous": false,
      "inputs": [
        {
          "indexed": true,
          "internalType": "address",
          "name": "owner",
          "type": "address"
        },
        {
          "indexed": true,
          "internalType": "address",
          "name": "operator",
          "type": "address"
        },
        {
          "indexed": false,
          "internalType": "bool",
          "name": "approved",
          "type": "bool"
        }
      ],
      "name": "ApprovalForAll",
      "type": "event"
    },
    {
      "anonymous": false,
      "inputs": [
        {
          "indexed": false,
          "internalType": "uint256",
          "name": "_fromTokenId",
          "type": "uint256"
        },
        {
          "indexed": false,
          "internalType": "uint256",
          "name": "_toTokenId",
          "type": "uint256"
        }
      ],
      "name": "BatchMetadataUpdate",
      "type": "event"
    },
    {
      "anonymous": false,
      "inputs": [
        {
          "indexed": false,
          "internalType": "uint256",
          "name": "_tokenId",
          "type": "uint256"
        }
      ],
      "name": "MetadataUpdate",
      "type": "event"
    },
    {
      "anonymous": false,
      "inputs": [
        {
          "indexed": true,
          "internalType": "address",
          "name": "previousOwner",
          "type": "address"
        },
        {
          "indexed": true,
          "internalType": "address",
          "name": "newOwner",
          "type": "address"
        }
      ],
      "name": "OwnershipTransferred",
      "type": "event"
    },
    {
      "anonymous": false,
      "inputs": [
        {
          "indexed": true,
          "internalType": "address",
          "name": "from",
          "type": "address"
        },
        {
          "indexed": true,
          "internalType": "address",
          "name": "to",
          "type": "address"
        },
        {
          "indexed": true,
          "internalType": "uint256",
          "name": "tokenId",
          "type": "uint256"
        }
      ],
      "name": "Transfer",
      "type": "event"
    },
    {
      "inputs": [
        {
          "internalType": "address",
          "name": "to",
          "type": "address"
        },
        {
          "internalType": "string",
          "name": "uri",
          "type": "string"
        }
      ],
      "name": "Mint",
      "outputs": [],
      "stateMutability": "nonpayable",
      "type": "function"
    },
    {
      "inputs": [],
      "name": "_tokenId",
      "outputs": [
        {
          "internalType": "uint256",
          "name": "",
          "type": "uint256"
        }
      ],
      "stateMutability": "view",
      "type": "function"
    },
    {
      "inputs": [
        {
          "internalType": "address",
          "name": "to",
          "type": "address"
        },
        {
          "internalType": "uint256",
          "name": "tokenId",
          "type": "uint256"
        }
      ],
      "name": "approve",
      "outputs": [],
      "stateMutability": "nonpayable",
      "type": "function"
    },
    {
      "inputs": [
        {
          "internalType": "address",
          "name": "owner",
          "type": "address"
        }
      ],
      "name": "balanceOf",
      "outputs": [
        {
          "internalType": "uint256",
          "name": "",
          "type": "uint256"
        }
      ],
      "stateMutability": "view",
      "type": "function"
    },
    {
      "inputs": [
        {
          "internalType": "uint256",
          "name": "tokenId",
          "type": "uint256"
        }
      ],
      "name": "getApproved",
      "outputs": [
        {
          "internalType": "address",
          "name": "",
          "type": "address"
        }
      ],
      "stateMutability": "view",
      "type": "function"
    },
    {
      "inputs": [
        {
          "internalType": "address",
          "name": "owner",
          "type": "address"
        },
        {
          "internalType": "address",
          "name": "operator",
          "type": "address"
        }
      ],
      "name": "isApprovedForAll",
      "outputs": [
        {
          "internalType": "bool",
          "name": "",
          "type": "bool"
        }
      ],
      "stateMutability": "view",
      "type": "function"
    },
    {
      "inputs": [],
      "name": "name",
      "outputs": [
        {
          "internalType": "string",
          "name": "",
          "type": "string"
        }
      ],
      "stateMutability": "view",
      "type": "function"
    },
    {
      "inputs": [],
      "name": "nextId",
      "outputs": [
        {
          "internalType": "uint256",
          "name": "",
          "type": "uint256"
        }
      ],
      "stateMutability": "view",
      "type": "function"
    },
    {
      "inputs": [],
      "name": "owner",
      "outputs": [
        {
          "internalType": "address",
          "name": "",
          "type": "address"
        }
      ],
      "stateMutability": "view",
      "type": "function"
    },
    {
      "inputs": [
        {
          "internalType": "uint256",
          "name": "tokenId",
          "type": "uint256"
        }
      ],
      "name": "ownerOf",
      "outputs": [
        {
          "internalType": "address",
          "name": "",
          "type": "address"
        }
      ],
      "stateMutability": "view",
      "type": "function"
    },
    {
      "inputs": [],
      "name": "renounceOwnership",
      "outputs": [],
      "stateMutability": "nonpayable",
      "type": "function"
    },
    {
      "inputs": [
        {
          "internalType": "address",
          "name": "from",
          "type": "address"
        },
        {
          "internalType": "address",
          "name": "to",
          "type": "address"
        },
        {
          "internalType": "uint256",
          "name": "tokenId",
          "type": "uint256"
        }
      ],
      "name": "safeTransferFrom",
      "outputs": [],
      "stateMutability": "nonpayable",
      "type": "function"
    },
    {
      "inputs": [
        {
          "internalType": "address",
          "name": "from",
          "type": "address"
        },
        {
          "internalType": "address",
          "name": "to",
          "type": "address"
        },
        {
          "internalType": "uint256",
          "name": "tokenId",
          "type": "uint256"
        },
        {
          "internalType": "bytes",
          "name": "data",
          "type": "bytes"
        }
      ],
      "name": "safeTransferFrom",
      "outputs": [],
      "stateMutability": "nonpayable",
      "type": "function"
    },
    {
      "inputs": [
        {
          "internalType": "address",
          "name": "operator",
          "type": "address"
        },
        {
          "internalType": "bool",
          "name": "approved",
          "type": "bool"
        }
      ],
      "name": "setApprovalForAll",
      "outputs": [],
      "stateMutability": "nonpayable",
      "type": "function"
    },
    {
      "inputs": [
        {
          "internalType": "string",
          "name": "baseURI",
          "type": "string"
        }
      ],
      "name": "setBaseURI",
      "outputs": [],
      "stateMutability": "nonpayable",
      "type": "function"
    },
    {
      "inputs": [
        {
          "internalType": "bytes4",
          "name": "interfaceId",
          "type": "bytes4"
        }
      ],
      "name": "supportsInterface",
      "outputs": [
        {
          "internalType": "bool",
          "name": "",
          "type": "bool"
        }
      ],
      "stateMutability": "view",
      "type": "function"
    },
    {
      "inputs": [],
      "name": "symbol",
      "outputs": [
        {
          "internalType": "string",
          "name": "",
          "type": "string"
        }
      ],
      "stateMutability": "view",
      "type": "function"
    },
    {
      "inputs": [
        {
          "internalType": "uint256",
          "name": "tokenId",
          "type": "uint256"
        }
      ],
      "name": "tokenURI",
      "outputs": [
        {
          "internalType": "string",
          "name": "",
          "type": "string"
        }
      ],
      "stateMutability": "view",
      "type": "function"
    },
    {
      "inputs": [
        {
          "internalType": "address",
          "name": "from",
          "type": "address"
        },
        {
          "internalType": "address",
          "name": "to",
          "type": "address"
        },
        {
          "internalType": "uint256",
          "name": "tokenId",
          "type": "uint256"
        }
      ],
      "name": "transferFrom",
      "outputs": [],
      "stateMutability": "nonpayable",
      "type": "function"
    },
    {
      "inputs": [
        {
          "internalType": "address",
          "name": "newOwner",
          "type": "address"
        }
      ],
      "name": "transferOwnership",
      "outputs": [],
      "stateMutability": "nonpayable",
      "type": "function"
    }
  ],
  "bytecode": "0x60806040523480156200001157600080fd5b50336040518060400160405280600781526020017f506572736f6e61000000000000000000000000000000000000000000000000008152506040518060400160405280600381526020017f50454e000000000000000000000000000000000000000000000000000000000081525081600090816200009091906200049d565b508060019081620000a291906200049d565b505050600073ffffffffffffffffffffffffffffffffffffffff168173ffffffffffffffffffffffffffffffffffffffff16036200011a5760006040517f1e4fbdf7000000000000000000000000000000000000000000000000000000008152600401620001119190620005c9565b60405180910390fd5b6200012b816200015d60201b60201c565b5060405180606001604052806035815260200162002da260359139600990816200015691906200049d565b50620005e6565b6000600760009054906101000a900473ffffffffffffffffffffffffffffffffffffffff16905081600760006101000a81548173ffffffffffffffffffffffffffffffffffffffff021916908373ffffffffffffffffffffffffffffffffffffffff1602179055508173ffffffffffffffffffffffffffffffffffffffff168173ffffffffffffffffffffffffffffffffffffffff167f8be0079c531659141344cd1fd0a4f28419497f9722a3daafe3b4186f6b6457e060405160405180910390a35050565b600081519050919050565b7f4e487b7100000000000000000000000000000000000000000000000000000000600052604160045260246000fd5b7f4e487b7100000000000000000000000000000000000000000000000000000000600052602260045260246000fd5b60006002820490506001821680620002a557607f821691505b602082108103620002bb57620002ba6200025d565b5b50919050565b60008190508160005260206000209050919050565b60006020601f8301049050919050565b600082821b905092915050565b600060088302620003257fffffffffffffffffffffffffffffffffffffffffffffffffffffffffffffffff82620002e6565b620003318683620002e6565b95508019841693508086168417925050509392505050565b6000819050919050565b6000819050919050565b60006200037e62000378620003728462000349565b62000353565b62000349565b9050919050565b6000819050919050565b6200039a836200035d565b620003b2620003a98262000385565b848454620002f3565b825550505050565b600090565b620003c9620003ba565b620003d68184846200038f565b505050565b5b81811015620003fe57620003f2600082620003bf565b600181019050620003dc565b5050565b601f8211156200044d576200041781620002c1565b6200042284620002d6565b8101602085101562000432578190505b6200044a6200044185620002d6565b830182620003db565b50505b505050565b600082821c905092915050565b6000620004726000198460080262000452565b1980831691505092915050565b60006200048d83836200045f565b9150826002028217905092915050565b620004a88262000223565b67ffffffffffffffff811115620004c457620004c36200022e565b5b620004d082546200028c565b620004dd82828562000402565b600060209050601f83116001811462000515576000841562000500578287015190505b6200050c85826200047f565b8655506200057c565b601f1984166200052586620002c1565b60005b828110156200054f5784890151825560018201915060208501945060208101905062000528565b868310156200056f57848901516200056b601f8916826200045f565b8355505b6001600288020188555050505b505050505050565b600073ffffffffffffffffffffffffffffffffffffffff82169050919050565b6000620005b18262000584565b9050919050565b620005c381620005a4565b82525050565b6000602082019050620005e06000830184620005b8565b92915050565b6127ac80620005f66000396000f3fe608060405234801561001057600080fd5b506004361061012c5760003560e01c80636352211e116100ad578063a22cb46511610071578063a22cb4651461031d578063b88d4fde14610339578063c87b56dd14610355578063e985e9c514610385578063f2fde38b146103b55761012c565b80636352211e1461027757806370a08231146102a7578063715018a6146102d75780638da5cb5b146102e157806395d89b41146102ff5761012c565b806324822514116100f457806324822514146101e757806342842e0e146102055780634c2f6dd31461022157806355f804b31461023d57806361b8ce8c146102595761012c565b806301ffc9a71461013157806306fdde0314610161578063081812fc1461017f578063095ea7b3146101af57806323b872dd146101cb575b600080fd5b61014b60048036038101906101469190611bbb565b6103d1565b6040516101589190611c03565b60405180910390f35b6101696103e3565b6040516101769190611cae565b60405180910390f35b61019960048036038101906101949190611d06565b610475565b6040516101a69190611d74565b60405180910390f35b6101c960048036038101906101c49190611dbb565b610491565b005b6101e560048036038101906101e09190611dfb565b6104a7565b005b6101ef6105a9565b6040516101fc9190611e5d565b60405180910390f35b61021f600480360381019061021a9190611dfb565b6105af565b005b61023b60048036038101906102369190611fad565b6105cf565b005b61025760048036038101906102529190612009565b61060b565b005b610261610626565b60405161026e9190611e5d565b60405180910390f35b610291600480360381019061028c9190611d06565b610630565b60405161029e9190611d74565b60405180910390f35b6102c160048036038101906102bc9190612052565b610642565b6040516102ce9190611e5d565b60405180910390f35b6102df6106fc565b005b6102e9610710565b6040516102f69190611d74565b60405180910390f35b61030761073a565b6040516103149190611cae565b60405180910390f35b610337600480360381019061033291906120ab565b6107cc565b005b610353600480360381019061034e919061218c565b6107e2565b005b61036f600480360381019061036a9190611d06565b6107ff565b60405161037c9190611cae565b60405180910390f35b61039f600480360381019061039a919061220f565b610811565b6040516103ac9190611c03565b60405180910390f35b6103cf60048036038101906103ca9190612052565b6108a5565b005b60006103dc8261092b565b9050919050565b6060600080546103f29061227e565b80601f016020809104026020016040519081016040528092919081815260200182805461041e9061227e565b801561046b5780601f106104405761010080835404028352916020019161046b565b820191906000526020600020905b81548152906001019060200180831161044e57829003601f168201915b5050505050905090565b60006104808261098c565b5061048a82610a14565b9050919050565b6104a3828261049e610a51565b610a59565b5050565b600073ffffffffffffffffffffffffffffffffffffffff168273ffffffffffffffffffffffffffffffffffffffff16036105195760006040517f64a0ae920000000000000000000000000000000000000000000000000000000081526004016105109190611d74565b60405180910390fd5b600061052d8383610528610a51565b610a6b565b90508373ffffffffffffffffffffffffffffffffffffffff168173ffffffffffffffffffffffffffffffffffffffff16146105a3578382826040517f64283d7b00000000000000000000000000000000000000000000000000000000815260040161059a939291906122af565b60405180910390fd5b50505050565b60085481565b6105ca838383604051806020016040528060008152506107e2565b505050565b6105d7610c85565b6000600860008154809291906105ec90612315565b9190505590506105fc8382610d0c565b6106068183610e05565b505050565b610613610c85565b80600990816106229190612509565b5050565b6000600854905090565b600061063b8261098c565b9050919050565b60008073ffffffffffffffffffffffffffffffffffffffff168273ffffffffffffffffffffffffffffffffffffffff16036106b55760006040517f89c62b640000000000000000000000000000000000000000000000000000000081526004016106ac9190611d74565b60405180910390fd5b600360008373ffffffffffffffffffffffffffffffffffffffff1673ffffffffffffffffffffffffffffffffffffffff168152602001908152602001600020549050919050565b610704610c85565b61070e6000610e61565b565b6000600760009054906101000a900473ffffffffffffffffffffffffffffffffffffffff16905090565b6060600180546107499061227e565b80601f01602080910402602001604051908101604052809291908181526020018280546107759061227e565b80156107c25780601f10610797576101008083540402835291602001916107c2565b820191906000526020600020905b8154815290600101906020018083116107a557829003601f168201915b5050505050905090565b6107de6107d7610a51565b8383610f27565b5050565b6107ed8484846104a7565b6107f984848484611096565b50505050565b606061080a8261124d565b9050919050565b6000600560008473ffffffffffffffffffffffffffffffffffffffff1673ffffffffffffffffffffffffffffffffffffffff16815260200190815260200160002060008373ffffffffffffffffffffffffffffffffffffffff1673ffffffffffffffffffffffffffffffffffffffff16815260200190815260200160002060009054906101000a900460ff16905092915050565b6108ad610c85565b600073ffffffffffffffffffffffffffffffffffffffff168173ffffffffffffffffffffffffffffffffffffffff160361091f5760006040517f1e4fbdf70000000000000000000000000000000000000000000000000000000081526004016109169190611d74565b60405180910390fd5b61092881610e61565b50565b6000634906490660e01b7bffffffffffffffffffffffffffffffffffffffffffffffffffffffff1916827bffffffffffffffffffffffffffffffffffffffffffffffffffffffff19161480610985575061098482611360565b5b9050919050565b60008061099883611442565b9050600073ffffffffffffffffffffffffffffffffffffffff168173ffffffffffffffffffffffffffffffffffffffff1603610a0b57826040517f7e273289000000000000000000000000000000000000000000000000000000008152600401610a029190611e5d565b60405180910390fd5b80915050919050565b60006004600083815260200190815260200160002060009054906101000a900473ffffffffffffffffffffffffffffffffffffffff169050919050565b600033905090565b610a66838383600161147f565b505050565b600080610a7784611442565b9050600073ffffffffffffffffffffffffffffffffffffffff168373ffffffffffffffffffffffffffffffffffffffff1614610ab957610ab8818486611644565b5b600073ffffffffffffffffffffffffffffffffffffffff168173ffffffffffffffffffffffffffffffffffffffff1614610b4a57610afb60008560008061147f565b6001600360008373ffffffffffffffffffffffffffffffffffffffff1673ffffffffffffffffffffffffffffffffffffffff168152602001908152602001600020600082825403925050819055505b600073ffffffffffffffffffffffffffffffffffffffff168573ffffffffffffffffffffffffffffffffffffffff1614610bcd576001600360008773ffffffffffffffffffffffffffffffffffffffff1673ffffffffffffffffffffffffffffffffffffffff168152602001908152602001600020600082825401925050819055505b846002600086815260200190815260200160002060006101000a81548173ffffffffffffffffffffffffffffffffffffffff021916908373ffffffffffffffffffffffffffffffffffffffff160217905550838573ffffffffffffffffffffffffffffffffffffffff168273ffffffffffffffffffffffffffffffffffffffff167fddf252ad1be2c89b69c2b068fc378daa952ba7f163c4a11628f55a4df523b3ef60405160405180910390a4809150509392505050565b610c8d610a51565b73ffffffffffffffffffffffffffffffffffffffff16610cab610710565b73ffffffffffffffffffffffffffffffffffffffff1614610d0a57610cce610a51565b6040517f118cdaa7000000000000000000000000000000000000000000000000000000008152600401610d019190611d74565b60405180910390fd5b565b600073ffffffffffffffffffffffffffffffffffffffff168273ffffffffffffffffffffffffffffffffffffffff1603610d7e5760006040517f64a0ae92000000000000000000000000000000000000000000000000000000008152600401610d759190611d74565b60405180910390fd5b6000610d8c83836000610a6b565b9050600073ffffffffffffffffffffffffffffffffffffffff168173ffffffffffffffffffffffffffffffffffffffff1614610e005760006040517f73c6ac6e000000000000000000000000000000000000000000000000000000008152600401610df79190611d74565b60405180910390fd5b505050565b80600660008481526020019081526020016000209081610e259190612509565b507ff8e1a15aba9398e019f0b49df1a4fde98ee17ae345cb5f6b5e2c27f5033e8ce782604051610e559190611e5d565b60405180910390a15050565b6000600760009054906101000a900473ffffffffffffffffffffffffffffffffffffffff16905081600760006101000a81548173ffffffffffffffffffffffffffffffffffffffff021916908373ffffffffffffffffffffffffffffffffffffffff1602179055508173ffffffffffffffffffffffffffffffffffffffff168173ffffffffffffffffffffffffffffffffffffffff167f8be0079c531659141344cd1fd0a4f28419497f9722a3daafe3b4186f6b6457e060405160405180910390a35050565b600073ffffffffffffffffffffffffffffffffffffffff168273ffffffffffffffffffffffffffffffffffffffff1603610f9857816040517f5b08ba18000000000000000000000000000000000000000000000000000000008152600401610f8f9190611d74565b60405180910390fd5b80600560008573ffffffffffffffffffffffffffffffffffffffff1673ffffffffffffffffffffffffffffffffffffffff16815260200190815260200160002060008473ffffffffffffffffffffffffffffffffffffffff1673ffffffffffffffffffffffffffffffffffffffff16815260200190815260200160002060006101000a81548160ff0219169083151502179055508173ffffffffffffffffffffffffffffffffffffffff168373ffffffffffffffffffffffffffffffffffffffff167f17307eab39ab6107e8899845ad3d59bd9653f200f220920489ca2b5937696c31836040516110899190611c03565b60405180910390a3505050565b60008373ffffffffffffffffffffffffffffffffffffffff163b1115611247578273ffffffffffffffffffffffffffffffffffffffff1663150b7a026110da610a51565b8685856040518563ffffffff1660e01b81526004016110fc9493929190612630565b6020604051808303816000875af192505050801561113857506040513d601f19601f820116820180604052508101906111359190612691565b60015b6111bc573d8060008114611168576040519150601f19603f3d011682016040523d82523d6000602084013e61116d565b606091505b5060008151036111b457836040517f64a0ae920000000000000000000000000000000000000000000000000000000081526004016111ab9190611d74565b60405180910390fd5b805181602001fd5b63150b7a0260e01b7bffffffffffffffffffffffffffffffffffffffffffffffffffffffff1916817bffffffffffffffffffffffffffffffffffffffffffffffffffffffff19161461124557836040517f64a0ae9200000000000000000000000000000000000000000000000000000000815260040161123c9190611d74565b60405180910390fd5b505b50505050565b60606112588261098c565b5060006006600084815260200190815260200160002080546112799061227e565b80601f01602080910402602001604051908101604052809291908181526020018280546112a59061227e565b80156112f25780601f106112c7576101008083540402835291602001916112f2565b820191906000526020600020905b8154815290600101906020018083116112d557829003601f168201915b505050505090506000611303611708565b9050600081510361131857819250505061135b565b60008251111561134d5780826040516020016113359291906126fa565b6040516020818303038152906040529250505061135b565b6113568461179a565b925050505b919050565b60007f80ac58cd000000000000000000000000000000000000000000000000000000007bffffffffffffffffffffffffffffffffffffffffffffffffffffffff1916827bffffffffffffffffffffffffffffffffffffffffffffffffffffffff1916148061142b57507f5b5e139f000000000000000000000000000000000000000000000000000000007bffffffffffffffffffffffffffffffffffffffffffffffffffffffff1916827bffffffffffffffffffffffffffffffffffffffffffffffffffffffff1916145b8061143b575061143a82611803565b5b9050919050565b60006002600083815260200190815260200160002060009054906101000a900473ffffffffffffffffffffffffffffffffffffffff169050919050565b80806114b85750600073ffffffffffffffffffffffffffffffffffffffff168273ffffffffffffffffffffffffffffffffffffffff1614155b156115ec5760006114c88461098c565b9050600073ffffffffffffffffffffffffffffffffffffffff168373ffffffffffffffffffffffffffffffffffffffff161415801561153357508273ffffffffffffffffffffffffffffffffffffffff168173ffffffffffffffffffffffffffffffffffffffff1614155b801561154657506115448184610811565b155b1561158857826040517fa9fbf51f00000000000000000000000000000000000000000000000000000000815260040161157f9190611d74565b60405180910390fd5b81156115ea57838573ffffffffffffffffffffffffffffffffffffffff168273ffffffffffffffffffffffffffffffffffffffff167f8c5be1e5ebec7d5bd14f71427d1e84f3dd0314c0f7b2291e5b200ac8c7c3b92560405160405180910390a45b505b836004600085815260200190815260200160002060006101000a81548173ffffffffffffffffffffffffffffffffffffffff021916908373ffffffffffffffffffffffffffffffffffffffff16021790555050505050565b61164f83838361186d565b61170357600073ffffffffffffffffffffffffffffffffffffffff168373ffffffffffffffffffffffffffffffffffffffff16036116c457806040517f7e2732890000000000000000000000000000000000000000000000000000000081526004016116bb9190611e5d565b60405180910390fd5b81816040517f177e802f0000000000000000000000000000000000000000000000000000000081526004016116fa92919061271e565b60405180910390fd5b505050565b6060600980546117179061227e565b80601f01602080910402602001604051908101604052809291908181526020018280546117439061227e565b80156117905780601f1061176557610100808354040283529160200191611790565b820191906000526020600020905b81548152906001019060200180831161177357829003601f168201915b5050505050905090565b60606117a58261098c565b5060006117b0611708565b905060008151116117d057604051806020016040528060008152506117fb565b806117da8461192e565b6040516020016117eb9291906126fa565b6040516020818303038152906040525b915050919050565b60007f01ffc9a7000000000000000000000000000000000000000000000000000000007bffffffffffffffffffffffffffffffffffffffffffffffffffffffff1916827bffffffffffffffffffffffffffffffffffffffffffffffffffffffff1916149050919050565b60008073ffffffffffffffffffffffffffffffffffffffff168373ffffffffffffffffffffffffffffffffffffffff161415801561192557508273ffffffffffffffffffffffffffffffffffffffff168473ffffffffffffffffffffffffffffffffffffffff1614806118e657506118e58484610811565b5b8061192457508273ffffffffffffffffffffffffffffffffffffffff1661190c83610a14565b73ffffffffffffffffffffffffffffffffffffffff16145b5b90509392505050565b60606000600161193d846119fc565b01905060008167ffffffffffffffff81111561195c5761195b611e82565b5b6040519080825280601f01601f19166020018201604052801561198e5781602001600182028036833780820191505090505b509050600082602001820190505b6001156119f1578080600190039150507f3031323334353637383961626364656600000000000000000000000000000000600a86061a8153600a85816119e5576119e4612747565b5b0494506000850361199c575b819350505050919050565b600080600090507a184f03e93ff9f4daa797ed6e38ed64bf6a1f0100000000000000008310611a5a577a184f03e93ff9f4daa797ed6e38ed64bf6a1f0100000000000000008381611a5057611a4f612747565b5b0492506040810190505b6d04ee2d6d415b85acef81000000008310611a97576d04ee2d6d415b85acef81000000008381611a8d57611a8c612747565b5b0492506020810190505b662386f26fc100008310611ac657662386f26fc100008381611abc57611abb612747565b5b0492506010810190505b6305f5e1008310611aef576305f5e1008381611ae557611ae4612747565b5b0492506008810190505b6127108310611b14576127108381611b0a57611b09612747565b5b0492506004810190505b60648310611b375760648381611b2d57611b2c612747565b5b0492506002810190505b600a8310611b46576001810190505b80915050919050565b6000604051905090565b600080fd5b600080fd5b60007fffffffff0000000000000000000000000000000000000000000000000000000082169050919050565b611b9881611b63565b8114611ba357600080fd5b50565b600081359050611bb581611b8f565b92915050565b600060208284031215611bd157611bd0611b59565b5b6000611bdf84828501611ba6565b91505092915050565b60008115159050919050565b611bfd81611be8565b82525050565b6000602082019050611c186000830184611bf4565b92915050565b600081519050919050565b600082825260208201905092915050565b60005b83811015611c58578082015181840152602081019050611c3d565b60008484015250505050565b6000601f19601f8301169050919050565b6000611c8082611c1e565b611c8a8185611c29565b9350611c9a818560208601611c3a565b611ca381611c64565b840191505092915050565b60006020820190508181036000830152611cc88184611c75565b905092915050565b6000819050919050565b611ce381611cd0565b8114611cee57600080fd5b50565b600081359050611d0081611cda565b92915050565b600060208284031215611d1c57611d1b611b59565b5b6000611d2a84828501611cf1565b91505092915050565b600073ffffffffffffffffffffffffffffffffffffffff82169050919050565b6000611d5e82611d33565b9050919050565b611d6e81611d53565b82525050565b6000602082019050611d896000830184611d65565b92915050565b611d9881611d53565b8114611da357600080fd5b50565b600081359050611db581611d8f565b92915050565b60008060408385031215611dd257611dd1611b59565b5b6000611de085828601611da6565b9250506020611df185828601611cf1565b9150509250929050565b600080600060608486031215611e1457611e13611b59565b5b6000611e2286828701611da6565b9350506020611e3386828701611da6565b9250506040611e4486828701611cf1565b9150509250925092565b611e5781611cd0565b82525050565b6000602082019050611e726000830184611e4e565b92915050565b600080fd5b600080fd5b7f4e487b7100000000000000000000000000000000000000000000000000000000600052604160045260246000fd5b611eba82611c64565b810181811067ffffffffffffffff82111715611ed957611ed8611e82565b5b80604052505050565b6000611eec611b4f565b9050611ef88282611eb1565b919050565b600067ffffffffffffffff821115611f1857611f17611e82565b5b611f2182611c64565b9050602081019050919050565b82818337600083830152505050565b6000611f50611f4b84611efd565b611ee2565b905082815260208101848484011115611f6c57611f6b611e7d565b5b611f77848285611f2e565b509392505050565b600082601f830112611f9457611f93611e78565b5b8135611fa4848260208601611f3d565b91505092915050565b60008060408385031215611fc457611fc3611b59565b5b6000611fd285828601611da6565b925050602083013567ffffffffffffffff811115611ff357611ff2611b5e565b5b611fff85828601611f7f565b9150509250929050565b60006020828403121561201f5761201e611b59565b5b600082013567ffffffffffffffff81111561203d5761203c611b5e565b5b61204984828501611f7f565b91505092915050565b60006020828403121561206857612067611b59565b5b600061207684828501611da6565b91505092915050565b61208881611be8565b811461209357600080fd5b50565b6000813590506120a58161207f565b92915050565b600080604083850312156120c2576120c1611b59565b5b60006120d085828601611da6565b92505060206120e185828601612096565b9150509250929050565b600067ffffffffffffffff82111561210657612105611e82565b5b61210f82611c64565b9050602081019050919050565b600061212f61212a846120eb565b611ee2565b90508281526020810184848401111561214b5761214a611e7d565b5b612156848285611f2e565b509392505050565b600082601f83011261217357612172611e78565b5b813561218384826020860161211c565b91505092915050565b600080600080608085870312156121a6576121a5611b59565b5b60006121b487828801611da6565b94505060206121c587828801611da6565b93505060406121d687828801611cf1565b925050606085013567ffffffffffffffff8111156121f7576121f6611b5e565b5b6122038782880161215e565b91505092959194509250565b6000806040838503121561222657612225611b59565b5b600061223485828601611da6565b925050602061224585828601611da6565b9150509250929050565b7f4e487b7100000000000000000000000000000000000000000000000000000000600052602260045260246000fd5b6000600282049050600182168061229657607f821691505b6020821081036122a9576122a861224f565b5b50919050565b60006060820190506122c46000830186611d65565b6122d16020830185611e4e565b6122de6040830184611d65565b949350505050565b7f4e487b7100000000000000000000000000000000000000000000000000000000600052601160045260246000fd5b600061232082611cd0565b91507fffffffffffffffffffffffffffffffffffffffffffffffffffffffffffffffff8203612352576123516122e6565b5b600182019050919050565b60008190508160005260206000209050919050565b60006020601f8301049050919050565b600082821b905092915050565b6000600883026123bf7fffffffffffffffffffffffffffffffffffffffffffffffffffffffffffffffff82612382565b6123c98683612382565b95508019841693508086168417925050509392505050565b6000819050919050565b60006124066124016123fc84611cd0565b6123e1565b611cd0565b9050919050565b6000819050919050565b612420836123eb565b61243461242c8261240d565b84845461238f565b825550505050565b600090565b61244961243c565b612454818484612417565b505050565b5b818110156124785761246d600082612441565b60018101905061245a565b5050565b601f8211156124bd5761248e8161235d565b61249784612372565b810160208510156124a6578190505b6124ba6124b285612372565b830182612459565b50505b505050565b600082821c905092915050565b60006124e0600019846008026124c2565b1980831691505092915050565b60006124f983836124cf565b9150826002028217905092915050565b61251282611c1e565b67ffffffffffffffff81111561252b5761252a611e82565b5b612535825461227e565b61254082828561247c565b600060209050601f8311600181146125735760008415612561578287015190505b61256b85826124ed565b8655506125d3565b601f1984166125818661235d565b60005b828110156125a957848901518255600182019150602085019450602081019050612584565b868310156125c657848901516125c2601f8916826124cf565b8355505b6001600288020188555050505b505050505050565b600081519050919050565b600082825260208201905092915050565b6000612602826125db565b61260c81856125e6565b935061261c818560208601611c3a565b61262581611c64565b840191505092915050565b60006080820190506126456000830187611d65565b6126526020830186611d65565b61265f6040830185611e4e565b818103606083015261267181846125f7565b905095945050505050565b60008151905061268b81611b8f565b92915050565b6000602082840312156126a7576126a6611b59565b5b60006126b58482850161267c565b91505092915050565b600081905092915050565b60006126d482611c1e565b6126de81856126be565b93506126ee818560208601611c3a565b80840191505092915050565b600061270682856126c9565b915061271282846126c9565b91508190509392505050565b60006040820190506127336000830185611d65565b6127406020830184611e4e565b9392505050565b7f4e487b7100000000000000000000000000000000000000000000000000000000600052601260045260246000fdfea2646970667358221220bc606a3b40d844605a403dd5983692c9a3c2f7784b32a32ea891e03136a8e29464736f6c63430008160033697066733a2f2f516d545278426f4c61705355674169617a3246787651595732656b74674a6e686f6f6d7a61513851373670757641",
  "linkReferences": {},
  "deployedLinkReferences": {}
}