{"contracts/ERC6551Registry.sol":{"ERC6551Registry":{"abi":[{"inputs":[],"name":"AccountCreationFailed","type":"error"},{"anonymous":false,"inputs":[{"indexed":false,"internalType":"address","name":"account","type":"address"},{"indexed":true,"internalType":"address","name":"implementation","type":"address"},{"indexed":false,"internalType":"uint256","name":"chainId","type":"uint256"},{"indexed":true,"internalType":"address","name":"tokenContract","type":"address"},{"indexed":true,"internalType":"uint256","name":"tokenId","type":"uint256"},{"indexed":false,"internalType":"uint256","name":"salt","type":"uint256"}],"name":"AccountCreated","type":"event"},{"inputs":[{"internalType":"address","name":"implementation","type":"address"},{"internalType":"uint256","name":"chainId","type":"uint256"},{"internalType":"address","name":"tokenContract","type":"address"},{"internalType":"uint256","name":"tokenId","type":"uint256"},{"internalType":"uint256","name":"salt","type":"uint256"}],"name":"account","outputs":[{"internalType":"address","name":"","type":"address"}],"stateMutability":"view","type":"function"},{"inputs":[{"internalType":"address","name":"implementation","type":"address"},{"internalType":"uint256","name":"chainId","type":"uint256"},{"internalType":"address","name":"tokenContract","type":"address"},{"internalType":"uint256","name":"tokenId","type":"uint256"},{"internalType":"uint256","name":"salt","type":"uint256"},{"internalType":"bytes","name":"initData","type":"bytes"},{"internalType":"string","name":"guild","type":"string"},{"internalType":"string[]","name":"socialAccounts","type":"string[]"}],"name":"createAccount","outputs":[{"internalType":"address","name":"","type":"address"}],"stateMutability":"nonpayable","type":"function"},{"inputs":[{"internalType":"uint256","name":"_id","type":"uint256"}],"name":"getAccountDetailsById","outputs":[{"internalType":"string","name":"","type":"string"},{"internalType":"string[]","name":"","type":"string[]"}],"stateMutability":"view","type":"function"},{"inputs":[{"internalType":"string","name":"guild","type":"string"},{"internalType":"string[]","name":"socialAccount","type":"string[]"}],"name":"saveAccountDetails","outputs":[],"stateMutability":"nonpayable","type":"function"}],"evm":{"bytecode":{"linkReferences":{},"object":"608060405234801561001057600080fd5b5061140f806100206000396000f3fe608060405234801561001057600080fd5b506004361061004c5760003560e01c80635e9bc536146100515780636b19734f14610081578063cce32fc4146100b1578063f2f4d357146100cd575b600080fd5b61006b6004803603810190610066919061077b565b6100fe565b6040516100789190610805565b60405180910390f35b61009b60048036038101906100969190610aa7565b610130565b6040516100a89190610805565b60405180910390f35b6100cb60048036038101906100c69190610bb5565b610308565b005b6100e760048036038101906100e29190610c2d565b6103b0565b6040516100f5929190610de5565b60405180910390f35b60008061010e8787878787610565565b8051906020012090506101248360001b826105b9565b91505095945050505050565b6000806101408b8b8b8b8b610565565b905060006101588860001b83805190602001206105b9565b905060008173ffffffffffffffffffffffffffffffffffffffff163b146101835780925050506102fb565b888a73ffffffffffffffffffffffffffffffffffffffff168d73ffffffffffffffffffffffffffffffffffffffff167f07fba7bba1191da7ee1155dcfa0030701c9c9a9cc34a93b991fc6fd0c9268d8f848f8d6040516101e593929190610e2b565b60405180910390a4878251602084016000f59050600073ffffffffffffffffffffffffffffffffffffffff168173ffffffffffffffffffffffffffffffffffffffff160361025f576040517f20188a5900000000000000000000000000000000000000000000000000000000815260040160405180910390fd5b600087879050146102eb576000808273ffffffffffffffffffffffffffffffffffffffff168989604051610294929190610e92565b6000604051808303816000865af19150503d80600081146102d1576040519150601f19603f3d011682016040523d82523d6000602084013e6102d6565b606091505b5091509150816102e857805160208201fd5b50505b6102f58585610308565b80925050505b9998505050505050505050565b600060405180606001604052806000548152602001848152602001838152509050600181908060018154018082558091505060019003906000526020600020906003020160009091909190915060008201518160000155602082015181600101908161037491906110b7565b5060408201518160020190805190602001906103919291906105f9565b5050506000808154809291906103a6906111b8565b9190505550505050565b606080600183815481106103c7576103c6611200565b5b9060005260206000209060030201600101600184815481106103ec576103eb611200565b5b906000526020600020906003020160020181805461040990610eda565b80601f016020809104026020016040519081016040528092919081815260200182805461043590610eda565b80156104825780601f1061045757610100808354040283529160200191610482565b820191906000526020600020905b81548152906001019060200180831161046557829003601f168201915b5050505050915080805480602002602001604051908101604052809291908181526020016000905b828210156105565783829060005260206000200180546104c990610eda565b80601f01602080910402602001604051908101604052809291908181526020018280546104f590610eda565b80156105425780601f1061051757610100808354040283529160200191610542565b820191906000526020600020905b81548152906001019060200180831161052557829003601f168201915b5050505050815260200190600101906104aa565b50505050905091509150915091565b6060858286868660405160200161057f949392919061122f565b60405160208183030381529060405260405160200161059f92919061139b565b604051602081830303815290604052905095945050505050565b60006105c68383306105ce565b905092915050565b6000604051836040820152846020820152828152600b810160ff815360558120925050509392505050565b828054828255906000526020600020908101928215610641579160200282015b8281111561064057825182908161063091906110b7565b5091602001919060010190610619565b5b50905061064e9190610652565b5090565b5b8082111561067257600081816106699190610676565b50600101610653565b5090565b50805461068290610eda565b6000825580601f1061069457506106b3565b601f0160209004906000526020600020908101906106b291906106b6565b5b50565b5b808211156106cf5760008160009055506001016106b7565b5090565b6000604051905090565b600080fd5b600080fd5b600073ffffffffffffffffffffffffffffffffffffffff82169050919050565b6000610712826106e7565b9050919050565b61072281610707565b811461072d57600080fd5b50565b60008135905061073f81610719565b92915050565b6000819050919050565b61075881610745565b811461076357600080fd5b50565b6000813590506107758161074f565b92915050565b600080600080600060a08688031215610797576107966106dd565b5b60006107a588828901610730565b95505060206107b688828901610766565b94505060406107c788828901610730565b93505060606107d888828901610766565b92505060806107e988828901610766565b9150509295509295909350565b6107ff81610707565b82525050565b600060208201905061081a60008301846107f6565b92915050565b600080fd5b600080fd5b600080fd5b60008083601f84011261084557610844610820565b5b8235905067ffffffffffffffff81111561086257610861610825565b5b60208301915083600182028301111561087e5761087d61082a565b5b9250929050565b600080fd5b6000601f19601f8301169050919050565b7f4e487b7100000000000000000000000000000000000000000000000000000000600052604160045260246000fd5b6108d38261088a565b810181811067ffffffffffffffff821117156108f2576108f161089b565b5b80604052505050565b60006109056106d3565b905061091182826108ca565b919050565b600067ffffffffffffffff8211156109315761093061089b565b5b61093a8261088a565b9050602081019050919050565b82818337600083830152505050565b600061096961096484610916565b6108fb565b90508281526020810184848401111561098557610984610885565b5b610990848285610947565b509392505050565b600082601f8301126109ad576109ac610820565b5b81356109bd848260208601610956565b91505092915050565b600067ffffffffffffffff8211156109e1576109e061089b565b5b602082029050602081019050919050565b6000610a05610a00846109c6565b6108fb565b90508083825260208201905060208402830185811115610a2857610a2761082a565b5b835b81811015610a6f57803567ffffffffffffffff811115610a4d57610a4c610820565b5b808601610a5a8982610998565b85526020850194505050602081019050610a2a565b5050509392505050565b600082601f830112610a8e57610a8d610820565b5b8135610a9e8482602086016109f2565b91505092915050565b60008060008060008060008060006101008a8c031215610aca57610ac96106dd565b5b6000610ad88c828d01610730565b9950506020610ae98c828d01610766565b9850506040610afa8c828d01610730565b9750506060610b0b8c828d01610766565b9650506080610b1c8c828d01610766565b95505060a08a013567ffffffffffffffff811115610b3d57610b3c6106e2565b5b610b498c828d0161082f565b945094505060c08a013567ffffffffffffffff811115610b6c57610b6b6106e2565b5b610b788c828d01610998565b92505060e08a013567ffffffffffffffff811115610b9957610b986106e2565b5b610ba58c828d01610a79565b9150509295985092959850929598565b60008060408385031215610bcc57610bcb6106dd565b5b600083013567ffffffffffffffff811115610bea57610be96106e2565b5b610bf685828601610998565b925050602083013567ffffffffffffffff811115610c1757610c166106e2565b5b610c2385828601610a79565b9150509250929050565b600060208284031215610c4357610c426106dd565b5b6000610c5184828501610766565b91505092915050565b600081519050919050565b600082825260208201905092915050565b60005b83811015610c94578082015181840152602081019050610c79565b60008484015250505050565b6000610cab82610c5a565b610cb58185610c65565b9350610cc5818560208601610c76565b610cce8161088a565b840191505092915050565b600081519050919050565b600082825260208201905092915050565b6000819050602082019050919050565b600082825260208201905092915050565b6000610d2182610c5a565b610d2b8185610d05565b9350610d3b818560208601610c76565b610d448161088a565b840191505092915050565b6000610d5b8383610d16565b905092915050565b6000602082019050919050565b6000610d7b82610cd9565b610d858185610ce4565b935083602082028501610d9785610cf5565b8060005b85811015610dd35784840389528151610db48582610d4f565b9450610dbf83610d63565b925060208a01995050600181019050610d9b565b50829750879550505050505092915050565b60006040820190508181036000830152610dff8185610ca0565b90508181036020830152610e138184610d70565b90509392505050565b610e2581610745565b82525050565b6000606082019050610e4060008301866107f6565b610e4d6020830185610e1c565b610e5a6040830184610e1c565b949350505050565b600081905092915050565b6000610e798385610e62565b9350610e86838584610947565b82840190509392505050565b6000610e9f828486610e6d565b91508190509392505050565b7f4e487b7100000000000000000000000000000000000000000000000000000000600052602260045260246000fd5b60006002820490506001821680610ef257607f821691505b602082108103610f0557610f04610eab565b5b50919050565b60008190508160005260206000209050919050565b60006020601f8301049050919050565b600082821b905092915050565b600060088302610f6d7fffffffffffffffffffffffffffffffffffffffffffffffffffffffffffffffff82610f30565b610f778683610f30565b95508019841693508086168417925050509392505050565b6000819050919050565b6000610fb4610faf610faa84610745565b610f8f565b610745565b9050919050565b6000819050919050565b610fce83610f99565b610fe2610fda82610fbb565b848454610f3d565b825550505050565b600090565b610ff7610fea565b611002818484610fc5565b505050565b5b818110156110265761101b600082610fef565b600181019050611008565b5050565b601f82111561106b5761103c81610f0b565b61104584610f20565b81016020851015611054578190505b61106861106085610f20565b830182611007565b50505b505050565b600082821c905092915050565b600061108e60001984600802611070565b1980831691505092915050565b60006110a7838361107d565b9150826002028217905092915050565b6110c082610c5a565b67ffffffffffffffff8111156110d9576110d861089b565b5b6110e38254610eda565b6110ee82828561102a565b600060209050601f831160018114611121576000841561110f578287015190505b611119858261109b565b865550611181565b601f19841661112f86610f0b565b60005b8281101561115757848901518255600182019150602085019450602081019050611132565b868310156111745784890151611170601f89168261107d565b8355505b6001600288020188555050505b505050505050565b7f4e487b7100000000000000000000000000000000000000000000000000000000600052601160045260246000fd5b60006111c382610745565b91507fffffffffffffffffffffffffffffffffffffffffffffffffffffffffffffffff82036111f5576111f4611189565b5b600182019050919050565b7f4e487b7100000000000000000000000000000000000000000000000000000000600052603260045260246000fd5b60006080820190506112446000830187610e1c565b6112516020830186610e1c565b61125e60408301856107f6565b61126b6060830184610e1c565b95945050505050565b600081905092915050565b7f3d60ad80600a3d3981f3363d3d373d3d3d363d73000000000000000000000000600082015250565b60006112b5601483611274565b91506112c08261127f565b601482019050919050565b60008160601b9050919050565b60006112e3826112cb565b9050919050565b60006112f5826112d8565b9050919050565b61130d61130882610707565b6112ea565b82525050565b7f5af43d82803e903d91602b57fd5bf30000000000000000000000000000000000600082015250565b6000611349600f83611274565b915061135482611313565b600f82019050919050565b600081519050919050565b60006113758261135f565b61137f8185610e62565b935061138f818560208601610c76565b80840191505092915050565b60006113a6826112a8565b91506113b282856112fc565b6014820191506113c18261133c565b91506113cd828461136a565b9150819050939250505056fea2646970667358221220e70f7028be9c3cc8cc012283b61ab62dcaf3203ac455381cb4e668a4ff0d5e3e64736f6c63430008160033","opcodes":"PUSH1 0x80 PUSH1 0x40 MSTORE CALLVALUE DUP1 ISZERO PUSH2 0x10 JUMPI PUSH1 0x0 DUP1 REVERT JUMPDEST POP PUSH2 0x140F DUP1 PUSH2 0x20 PUSH1 0x0 CODECOPY PUSH1 0x0 RETURN INVALID PUSH1 0x80 PUSH1 0x40 MSTORE CALLVALUE DUP1 ISZERO PUSH2 0x10 JUMPI PUSH1 0x0 DUP1 REVERT JUMPDEST POP PUSH1 0x4 CALLDATASIZE LT PUSH2 0x4C JUMPI PUSH1 0x0 CALLDATALOAD PUSH1 0xE0 SHR DUP1 PUSH4 0x5E9BC536 EQ PUSH2 0x51 JUMPI DUP1 PUSH4 0x6B19734F EQ PUSH2 0x81 JUMPI DUP1 PUSH4 0xCCE32FC4 EQ PUSH2 0xB1 JUMPI DUP1 PUSH4 0xF2F4D357 EQ PUSH2 0xCD JUMPI JUMPDEST PUSH1 0x0 DUP1 REVERT JUMPDEST PUSH2 0x6B PUSH1 0x4 DUP1 CALLDATASIZE SUB DUP2 ADD SWAP1 PUSH2 0x66 SWAP2 SWAP1 PUSH2 0x77B JUMP JUMPDEST PUSH2 0xFE JUMP JUMPDEST PUSH1 0x40 MLOAD PUSH2 0x78 SWAP2 SWAP1 PUSH2 0x805 JUMP JUMPDEST PUSH1 0x40 MLOAD DUP1 SWAP2 SUB SWAP1 RETURN JUMPDEST PUSH2 0x9B PUSH1 0x4 DUP1 CALLDATASIZE SUB DUP2 ADD SWAP1 PUSH2 0x96 SWAP2 SWAP1 PUSH2 0xAA7 JUMP JUMPDEST PUSH2 0x130 JUMP JUMPDEST PUSH1 0x40 MLOAD PUSH2 0xA8 SWAP2 SWAP1 PUSH2 0x805 JUMP JUMPDEST PUSH1 0x40 MLOAD DUP1 SWAP2 SUB SWAP1 RETURN JUMPDEST PUSH2 0xCB PUSH1 0x4 DUP1 CALLDATASIZE SUB DUP2 ADD SWAP1 PUSH2 0xC6 SWAP2 SWAP1 PUSH2 0xBB5 JUMP JUMPDEST PUSH2 0x308 JUMP JUMPDEST STOP JUMPDEST PUSH2 0xE7 PUSH1 0x4 DUP1 CALLDATASIZE SUB DUP2 ADD SWAP1 PUSH2 0xE2 SWAP2 SWAP1 PUSH2 0xC2D JUMP JUMPDEST PUSH2 0x3B0 JUMP JUMPDEST PUSH1 0x40 MLOAD PUSH2 0xF5 SWAP3 SWAP2 SWAP1 PUSH2 0xDE5 JUMP JUMPDEST PUSH1 0x40 MLOAD DUP1 SWAP2 SUB SWAP1 RETURN JUMPDEST PUSH1 0x0 DUP1 PUSH2 0x10E DUP8 DUP8 DUP8 DUP8 DUP8 PUSH2 0x565 JUMP JUMPDEST DUP1 MLOAD SWAP1 PUSH1 0x20 ADD KECCAK256 SWAP1 POP PUSH2 0x124 DUP4 PUSH1 0x0 SHL DUP3 PUSH2 0x5B9 JUMP JUMPDEST SWAP2 POP POP SWAP6 SWAP5 POP POP POP POP POP JUMP JUMPDEST PUSH1 0x0 DUP1 PUSH2 0x140 DUP12 DUP12 DUP12 DUP12 DUP12 PUSH2 0x565 JUMP JUMPDEST SWAP1 POP PUSH1 0x0 PUSH2 0x158 DUP9 PUSH1 0x0 SHL DUP4 DUP1 MLOAD SWAP1 PUSH1 0x20 ADD KECCAK256 PUSH2 0x5B9 JUMP JUMPDEST SWAP1 POP PUSH1 0x0 DUP2 PUSH20 0xFFFFFFFFFFFFFFFFFFFFFFFFFFFFFFFFFFFFFFFF AND EXTCODESIZE EQ PUSH2 0x183 JUMPI DUP1 SWAP3 POP POP POP PUSH2 0x2FB JUMP JUMPDEST DUP9 DUP11 PUSH20 0xFFFFFFFFFFFFFFFFFFFFFFFFFFFFFFFFFFFFFFFF AND DUP14 PUSH20 0xFFFFFFFFFFFFFFFFFFFFFFFFFFFFFFFFFFFFFFFF AND PUSH32 0x7FBA7BBA1191DA7EE1155DCFA0030701C9C9A9CC34A93B991FC6FD0C9268D8F DUP5 DUP16 DUP14 PUSH1 0x40 MLOAD PUSH2 0x1E5 SWAP4 SWAP3 SWAP2 SWAP1 PUSH2 0xE2B JUMP JUMPDEST PUSH1 0x40 MLOAD DUP1 SWAP2 SUB SWAP1 LOG4 DUP8 DUP3 MLOAD PUSH1 0x20 DUP5 ADD PUSH1 0x0 CREATE2 SWAP1 POP PUSH1 0x0 PUSH20 0xFFFFFFFFFFFFFFFFFFFFFFFFFFFFFFFFFFFFFFFF AND DUP2 PUSH20 0xFFFFFFFFFFFFFFFFFFFFFFFFFFFFFFFFFFFFFFFF AND SUB PUSH2 0x25F JUMPI PUSH1 0x40 MLOAD PUSH32 0x20188A5900000000000000000000000000000000000000000000000000000000 DUP2 MSTORE PUSH1 0x4 ADD PUSH1 0x40 MLOAD DUP1 SWAP2 SUB SWAP1 REVERT JUMPDEST PUSH1 0x0 DUP8 DUP8 SWAP1 POP EQ PUSH2 0x2EB JUMPI PUSH1 0x0 DUP1 DUP3 PUSH20 0xFFFFFFFFFFFFFFFFFFFFFFFFFFFFFFFFFFFFFFFF AND DUP10 DUP10 PUSH1 0x40 MLOAD PUSH2 0x294 SWAP3 SWAP2 SWAP1 PUSH2 0xE92 JUMP JUMPDEST PUSH1 0x0 PUSH1 0x40 MLOAD DUP1 DUP4 SUB DUP2 PUSH1 0x0 DUP7 GAS CALL SWAP2 POP POP RETURNDATASIZE DUP1 PUSH1 0x0 DUP2 EQ PUSH2 0x2D1 JUMPI PUSH1 0x40 MLOAD SWAP2 POP PUSH1 0x1F NOT PUSH1 0x3F RETURNDATASIZE ADD AND DUP3 ADD PUSH1 0x40 MSTORE RETURNDATASIZE DUP3 MSTORE RETURNDATASIZE PUSH1 0x0 PUSH1 0x20 DUP5 ADD RETURNDATACOPY PUSH2 0x2D6 JUMP JUMPDEST PUSH1 0x60 SWAP2 POP JUMPDEST POP SWAP2 POP SWAP2 POP DUP2 PUSH2 0x2E8 JUMPI DUP1 MLOAD PUSH1 0x20 DUP3 ADD REVERT JUMPDEST POP POP JUMPDEST PUSH2 0x2F5 DUP6 DUP6 PUSH2 0x308 JUMP JUMPDEST DUP1 SWAP3 POP POP POP JUMPDEST SWAP10 SWAP9 POP POP POP POP POP POP POP POP POP JUMP JUMPDEST PUSH1 0x0 PUSH1 0x40 MLOAD DUP1 PUSH1 0x60 ADD PUSH1 0x40 MSTORE DUP1 PUSH1 0x0 SLOAD DUP2 MSTORE PUSH1 0x20 ADD DUP5 DUP2 MSTORE PUSH1 0x20 ADD DUP4 DUP2 MSTORE POP SWAP1 POP PUSH1 0x1 DUP2 SWAP1 DUP1 PUSH1 0x1 DUP2 SLOAD ADD DUP1 DUP3 SSTORE DUP1 SWAP2 POP POP PUSH1 0x1 SWAP1 SUB SWAP1 PUSH1 0x0 MSTORE PUSH1 0x20 PUSH1 0x0 KECCAK256 SWAP1 PUSH1 0x3 MUL ADD PUSH1 0x0 SWAP1 SWAP2 SWAP1 SWAP2 SWAP1 SWAP2 POP PUSH1 0x0 DUP3 ADD MLOAD DUP2 PUSH1 0x0 ADD SSTORE PUSH1 0x20 DUP3 ADD MLOAD DUP2 PUSH1 0x1 ADD SWAP1 DUP2 PUSH2 0x374 SWAP2 SWAP1 PUSH2 0x10B7 JUMP JUMPDEST POP PUSH1 0x40 DUP3 ADD MLOAD DUP2 PUSH1 0x2 ADD SWAP1 DUP1 MLOAD SWAP1 PUSH1 0x20 ADD SWAP1 PUSH2 0x391 SWAP3 SWAP2 SWAP1 PUSH2 0x5F9 JUMP JUMPDEST POP POP POP PUSH1 0x0 DUP1 DUP2 SLOAD DUP1 SWAP3 SWAP2 SWAP1 PUSH2 0x3A6 SWAP1 PUSH2 0x11B8 JUMP JUMPDEST SWAP2 SWAP1 POP SSTORE POP POP POP POP JUMP JUMPDEST PUSH1 0x60 DUP1 PUSH1 0x1 DUP4 DUP2 SLOAD DUP2 LT PUSH2 0x3C7 JUMPI PUSH2 0x3C6 PUSH2 0x1200 JUMP JUMPDEST JUMPDEST SWAP1 PUSH1 0x0 MSTORE PUSH1 0x20 PUSH1 0x0 KECCAK256 SWAP1 PUSH1 0x3 MUL ADD PUSH1 0x1 ADD PUSH1 0x1 DUP5 DUP2 SLOAD DUP2 LT PUSH2 0x3EC JUMPI PUSH2 0x3EB PUSH2 0x1200 JUMP JUMPDEST JUMPDEST SWAP1 PUSH1 0x0 MSTORE PUSH1 0x20 PUSH1 0x0 KECCAK256 SWAP1 PUSH1 0x3 MUL ADD PUSH1 0x2 ADD DUP2 DUP1 SLOAD PUSH2 0x409 SWAP1 PUSH2 0xEDA JUMP JUMPDEST DUP1 PUSH1 0x1F ADD PUSH1 0x20 DUP1 SWAP2 DIV MUL PUSH1 0x20 ADD PUSH1 0x40 MLOAD SWAP1 DUP2 ADD PUSH1 0x40 MSTORE DUP1 SWAP3 SWAP2 SWAP1 DUP2 DUP2 MSTORE PUSH1 0x20 ADD DUP3 DUP1 SLOAD PUSH2 0x435 SWAP1 PUSH2 0xEDA JUMP JUMPDEST DUP1 ISZERO PUSH2 0x482 JUMPI DUP1 PUSH1 0x1F LT PUSH2 0x457 JUMPI PUSH2 0x100 DUP1 DUP4 SLOAD DIV MUL DUP4 MSTORE SWAP2 PUSH1 0x20 ADD SWAP2 PUSH2 0x482 JUMP JUMPDEST DUP3 ADD SWAP2 SWAP1 PUSH1 0x0 MSTORE PUSH1 0x20 PUSH1 0x0 KECCAK256 SWAP1 JUMPDEST DUP2 SLOAD DUP2 MSTORE SWAP1 PUSH1 0x1 ADD SWAP1 PUSH1 0x20 ADD DUP1 DUP4 GT PUSH2 0x465 JUMPI DUP3 SWAP1 SUB PUSH1 0x1F AND DUP3 ADD SWAP2 JUMPDEST POP POP POP POP POP SWAP2 POP DUP1 DUP1 SLOAD DUP1 PUSH1 0x20 MUL PUSH1 0x20 ADD PUSH1 0x40 MLOAD SWAP1 DUP2 ADD PUSH1 0x40 MSTORE DUP1 SWAP3 SWAP2 SWAP1 DUP2 DUP2 MSTORE PUSH1 0x20 ADD PUSH1 0x0 SWAP1 JUMPDEST DUP3 DUP3 LT ISZERO PUSH2 0x556 JUMPI DUP4 DUP3 SWAP1 PUSH1 0x0 MSTORE PUSH1 0x20 PUSH1 0x0 KECCAK256 ADD DUP1 SLOAD PUSH2 0x4C9 SWAP1 PUSH2 0xEDA JUMP JUMPDEST DUP1 PUSH1 0x1F ADD PUSH1 0x20 DUP1 SWAP2 DIV MUL PUSH1 0x20 ADD PUSH1 0x40 MLOAD SWAP1 DUP2 ADD PUSH1 0x40 MSTORE DUP1 SWAP3 SWAP2 SWAP1 DUP2 DUP2 MSTORE PUSH1 0x20 ADD DUP3 DUP1 SLOAD PUSH2 0x4F5 SWAP1 PUSH2 0xEDA JUMP JUMPDEST DUP1 ISZERO PUSH2 0x542 JUMPI DUP1 PUSH1 0x1F LT PUSH2 0x517 JUMPI PUSH2 0x100 DUP1 DUP4 SLOAD DIV MUL DUP4 MSTORE SWAP2 PUSH1 0x20 ADD SWAP2 PUSH2 0x542 JUMP JUMPDEST DUP3 ADD SWAP2 SWAP1 PUSH1 0x0 MSTORE PUSH1 0x20 PUSH1 0x0 KECCAK256 SWAP1 JUMPDEST DUP2 SLOAD DUP2 MSTORE SWAP1 PUSH1 0x1 ADD SWAP1 PUSH1 0x20 ADD DUP1 DUP4 GT PUSH2 0x525 JUMPI DUP3 SWAP1 SUB PUSH1 0x1F AND DUP3 ADD SWAP2 JUMPDEST POP POP POP POP POP DUP2 MSTORE PUSH1 0x20 ADD SWAP1 PUSH1 0x1 ADD SWAP1 PUSH2 0x4AA JUMP JUMPDEST POP POP POP POP SWAP1 POP SWAP2 POP SWAP2 POP SWAP2 POP SWAP2 JUMP JUMPDEST PUSH1 0x60 DUP6 DUP3 DUP7 DUP7 DUP7 PUSH1 0x40 MLOAD PUSH1 0x20 ADD PUSH2 0x57F SWAP5 SWAP4 SWAP3 SWAP2 SWAP1 PUSH2 0x122F JUMP JUMPDEST PUSH1 0x40 MLOAD PUSH1 0x20 DUP2 DUP4 SUB SUB DUP2 MSTORE SWAP1 PUSH1 0x40 MSTORE PUSH1 0x40 MLOAD PUSH1 0x20 ADD PUSH2 0x59F SWAP3 SWAP2 SWAP1 PUSH2 0x139B JUMP JUMPDEST PUSH1 0x40 MLOAD PUSH1 0x20 DUP2 DUP4 SUB SUB DUP2 MSTORE SWAP1 PUSH1 0x40 MSTORE SWAP1 POP SWAP6 SWAP5 POP POP POP POP POP JUMP JUMPDEST PUSH1 0x0 PUSH2 0x5C6 DUP4 DUP4 ADDRESS PUSH2 0x5CE JUMP JUMPDEST SWAP1 POP SWAP3 SWAP2 POP POP JUMP JUMPDEST PUSH1 0x0 PUSH1 0x40 MLOAD DUP4 PUSH1 0x40 DUP3 ADD MSTORE DUP5 PUSH1 0x20 DUP3 ADD MSTORE DUP3 DUP2 MSTORE PUSH1 0xB DUP2 ADD PUSH1 0xFF DUP2 MSTORE8 PUSH1 0x55 DUP2 KECCAK256 SWAP3 POP POP POP SWAP4 SWAP3 POP POP POP JUMP JUMPDEST DUP3 DUP1 SLOAD DUP3 DUP3 SSTORE SWAP1 PUSH1 0x0 MSTORE PUSH1 0x20 PUSH1 0x0 KECCAK256 SWAP1 DUP2 ADD SWAP3 DUP3 ISZERO PUSH2 0x641 JUMPI SWAP2 PUSH1 0x20 MUL DUP3 ADD JUMPDEST DUP3 DUP2 GT ISZERO PUSH2 0x640 JUMPI DUP3 MLOAD DUP3 SWAP1 DUP2 PUSH2 0x630 SWAP2 SWAP1 PUSH2 0x10B7 JUMP JUMPDEST POP SWAP2 PUSH1 0x20 ADD SWAP2 SWAP1 PUSH1 0x1 ADD SWAP1 PUSH2 0x619 JUMP JUMPDEST JUMPDEST POP SWAP1 POP PUSH2 0x64E SWAP2 SWAP1 PUSH2 0x652 JUMP JUMPDEST POP SWAP1 JUMP JUMPDEST JUMPDEST DUP1 DUP3 GT ISZERO PUSH2 0x672 JUMPI PUSH1 0x0 DUP2 DUP2 PUSH2 0x669 SWAP2 SWAP1 PUSH2 0x676 JUMP JUMPDEST POP PUSH1 0x1 ADD PUSH2 0x653 JUMP JUMPDEST POP SWAP1 JUMP JUMPDEST POP DUP1 SLOAD PUSH2 0x682 SWAP1 PUSH2 0xEDA JUMP JUMPDEST PUSH1 0x0 DUP3 SSTORE DUP1 PUSH1 0x1F LT PUSH2 0x694 JUMPI POP PUSH2 0x6B3 JUMP JUMPDEST PUSH1 0x1F ADD PUSH1 0x20 SWAP1 DIV SWAP1 PUSH1 0x0 MSTORE PUSH1 0x20 PUSH1 0x0 KECCAK256 SWAP1 DUP2 ADD SWAP1 PUSH2 0x6B2 SWAP2 SWAP1 PUSH2 0x6B6 JUMP JUMPDEST JUMPDEST POP JUMP JUMPDEST JUMPDEST DUP1 DUP3 GT ISZERO PUSH2 0x6CF JUMPI PUSH1 0x0 DUP2 PUSH1 0x0 SWAP1 SSTORE POP PUSH1 0x1 ADD PUSH2 0x6B7 JUMP JUMPDEST POP SWAP1 JUMP JUMPDEST PUSH1 0x0 PUSH1 0x40 MLOAD SWAP1 POP SWAP1 JUMP JUMPDEST PUSH1 0x0 DUP1 REVERT JUMPDEST PUSH1 0x0 DUP1 REVERT JUMPDEST PUSH1 0x0 PUSH20 0xFFFFFFFFFFFFFFFFFFFFFFFFFFFFFFFFFFFFFFFF DUP3 AND SWAP1 POP SWAP2 SWAP1 POP JUMP JUMPDEST PUSH1 0x0 PUSH2 0x712 DUP3 PUSH2 0x6E7 JUMP JUMPDEST SWAP1 POP SWAP2 SWAP1 POP JUMP JUMPDEST PUSH2 0x722 DUP2 PUSH2 0x707 JUMP JUMPDEST DUP2 EQ PUSH2 0x72D JUMPI PUSH1 0x0 DUP1 REVERT JUMPDEST POP JUMP JUMPDEST PUSH1 0x0 DUP2 CALLDATALOAD SWAP1 POP PUSH2 0x73F DUP2 PUSH2 0x719 JUMP JUMPDEST SWAP3 SWAP2 POP POP JUMP JUMPDEST PUSH1 0x0 DUP2 SWAP1 POP SWAP2 SWAP1 POP JUMP JUMPDEST PUSH2 0x758 DUP2 PUSH2 0x745 JUMP JUMPDEST DUP2 EQ PUSH2 0x763 JUMPI PUSH1 0x0 DUP1 REVERT JUMPDEST POP JUMP JUMPDEST PUSH1 0x0 DUP2 CALLDATALOAD SWAP1 POP PUSH2 0x775 DUP2 PUSH2 0x74F JUMP JUMPDEST SWAP3 SWAP2 POP POP JUMP JUMPDEST PUSH1 0x0 DUP1 PUSH1 0x0 DUP1 PUSH1 0x0 PUSH1 0xA0 DUP7 DUP9 SUB SLT ISZERO PUSH2 0x797 JUMPI PUSH2 0x796 PUSH2 0x6DD JUMP JUMPDEST JUMPDEST PUSH1 0x0 PUSH2 0x7A5 DUP9 DUP3 DUP10 ADD PUSH2 0x730 JUMP JUMPDEST SWAP6 POP POP PUSH1 0x20 PUSH2 0x7B6 DUP9 DUP3 DUP10 ADD PUSH2 0x766 JUMP JUMPDEST SWAP5 POP POP PUSH1 0x40 PUSH2 0x7C7 DUP9 DUP3 DUP10 ADD PUSH2 0x730 JUMP JUMPDEST SWAP4 POP POP PUSH1 0x60 PUSH2 0x7D8 DUP9 DUP3 DUP10 ADD PUSH2 0x766 JUMP JUMPDEST SWAP3 POP POP PUSH1 0x80 PUSH2 0x7E9 DUP9 DUP3 DUP10 ADD PUSH2 0x766 JUMP JUMPDEST SWAP2 POP POP SWAP3 SWAP6 POP SWAP3 SWAP6 SWAP1 SWAP4 POP JUMP JUMPDEST PUSH2 0x7FF DUP2 PUSH2 0x707 JUMP JUMPDEST DUP3 MSTORE POP POP JUMP JUMPDEST PUSH1 0x0 PUSH1 0x20 DUP3 ADD SWAP1 POP PUSH2 0x81A PUSH1 0x0 DUP4 ADD DUP5 PUSH2 0x7F6 JUMP JUMPDEST SWAP3 SWAP2 POP POP JUMP JUMPDEST PUSH1 0x0 DUP1 REVERT JUMPDEST PUSH1 0x0 DUP1 REVERT JUMPDEST PUSH1 0x0 DUP1 REVERT JUMPDEST PUSH1 0x0 DUP1 DUP4 PUSH1 0x1F DUP5 ADD SLT PUSH2 0x845 JUMPI PUSH2 0x844 PUSH2 0x820 JUMP JUMPDEST JUMPDEST DUP3 CALLDATALOAD SWAP1 POP PUSH8 0xFFFFFFFFFFFFFFFF DUP2 GT ISZERO PUSH2 0x862 JUMPI PUSH2 0x861 PUSH2 0x825 JUMP JUMPDEST JUMPDEST PUSH1 0x20 DUP4 ADD SWAP2 POP DUP4 PUSH1 0x1 DUP3 MUL DUP4 ADD GT ISZERO PUSH2 0x87E JUMPI PUSH2 0x87D PUSH2 0x82A JUMP JUMPDEST JUMPDEST SWAP3 POP SWAP3 SWAP1 POP JUMP JUMPDEST PUSH1 0x0 DUP1 REVERT JUMPDEST PUSH1 0x0 PUSH1 0x1F NOT PUSH1 0x1F DUP4 ADD AND SWAP1 POP SWAP2 SWAP1 POP JUMP JUMPDEST PUSH32 0x4E487B7100000000000000000000000000000000000000000000000000000000 PUSH1 0x0 MSTORE PUSH1 0x41 PUSH1 0x4 MSTORE PUSH1 0x24 PUSH1 0x0 REVERT JUMPDEST PUSH2 0x8D3 DUP3 PUSH2 0x88A JUMP JUMPDEST DUP2 ADD DUP2 DUP2 LT PUSH8 0xFFFFFFFFFFFFFFFF DUP3 GT OR ISZERO PUSH2 0x8F2 JUMPI PUSH2 0x8F1 PUSH2 0x89B JUMP JUMPDEST JUMPDEST DUP1 PUSH1 0x40 MSTORE POP POP POP JUMP JUMPDEST PUSH1 0x0 PUSH2 0x905 PUSH2 0x6D3 JUMP JUMPDEST SWAP1 POP PUSH2 0x911 DUP3 DUP3 PUSH2 0x8CA JUMP JUMPDEST SWAP2 SWAP1 POP JUMP JUMPDEST PUSH1 0x0 PUSH8 0xFFFFFFFFFFFFFFFF DUP3 GT ISZERO PUSH2 0x931 JUMPI PUSH2 0x930 PUSH2 0x89B JUMP JUMPDEST JUMPDEST PUSH2 0x93A DUP3 PUSH2 0x88A JUMP JUMPDEST SWAP1 POP PUSH1 0x20 DUP2 ADD SWAP1 POP SWAP2 SWAP1 POP JUMP JUMPDEST DUP3 DUP2 DUP4 CALLDATACOPY PUSH1 0x0 DUP4 DUP4 ADD MSTORE POP POP POP JUMP JUMPDEST PUSH1 0x0 PUSH2 0x969 PUSH2 0x964 DUP5 PUSH2 0x916 JUMP JUMPDEST PUSH2 0x8FB JUMP JUMPDEST SWAP1 POP DUP3 DUP2 MSTORE PUSH1 0x20 DUP2 ADD DUP5 DUP5 DUP5 ADD GT ISZERO PUSH2 0x985 JUMPI PUSH2 0x984 PUSH2 0x885 JUMP JUMPDEST JUMPDEST PUSH2 0x990 DUP5 DUP3 DUP6 PUSH2 0x947 JUMP JUMPDEST POP SWAP4 SWAP3 POP POP POP JUMP JUMPDEST PUSH1 0x0 DUP3 PUSH1 0x1F DUP4 ADD SLT PUSH2 0x9AD JUMPI PUSH2 0x9AC PUSH2 0x820 JUMP JUMPDEST JUMPDEST DUP2 CALLDATALOAD PUSH2 0x9BD DUP5 DUP3 PUSH1 0x20 DUP7 ADD PUSH2 0x956 JUMP JUMPDEST SWAP2 POP POP SWAP3 SWAP2 POP POP JUMP JUMPDEST PUSH1 0x0 PUSH8 0xFFFFFFFFFFFFFFFF DUP3 GT ISZERO PUSH2 0x9E1 JUMPI PUSH2 0x9E0 PUSH2 0x89B JUMP JUMPDEST JUMPDEST PUSH1 0x20 DUP3 MUL SWAP1 POP PUSH1 0x20 DUP2 ADD SWAP1 POP SWAP2 SWAP1 POP JUMP JUMPDEST PUSH1 0x0 PUSH2 0xA05 PUSH2 0xA00 DUP5 PUSH2 0x9C6 JUMP JUMPDEST PUSH2 0x8FB JUMP JUMPDEST SWAP1 POP DUP1 DUP4 DUP3 MSTORE PUSH1 0x20 DUP3 ADD SWAP1 POP PUSH1 0x20 DUP5 MUL DUP4 ADD DUP6 DUP2 GT ISZERO PUSH2 0xA28 JUMPI PUSH2 0xA27 PUSH2 0x82A JUMP JUMPDEST JUMPDEST DUP4 JUMPDEST DUP2 DUP2 LT ISZERO PUSH2 0xA6F JUMPI DUP1 CALLDATALOAD PUSH8 0xFFFFFFFFFFFFFFFF DUP2 GT ISZERO PUSH2 0xA4D JUMPI PUSH2 0xA4C PUSH2 0x820 JUMP JUMPDEST JUMPDEST DUP1 DUP7 ADD PUSH2 0xA5A DUP10 DUP3 PUSH2 0x998 JUMP JUMPDEST DUP6 MSTORE PUSH1 0x20 DUP6 ADD SWAP5 POP POP POP PUSH1 0x20 DUP2 ADD SWAP1 POP PUSH2 0xA2A JUMP JUMPDEST POP POP POP SWAP4 SWAP3 POP POP POP JUMP JUMPDEST PUSH1 0x0 DUP3 PUSH1 0x1F DUP4 ADD SLT PUSH2 0xA8E JUMPI PUSH2 0xA8D PUSH2 0x820 JUMP JUMPDEST JUMPDEST DUP2 CALLDATALOAD PUSH2 0xA9E DUP5 DUP3 PUSH1 0x20 DUP7 ADD PUSH2 0x9F2 JUMP JUMPDEST SWAP2 POP POP SWAP3 SWAP2 POP POP JUMP JUMPDEST PUSH1 0x0 DUP1 PUSH1 0x0 DUP1 PUSH1 0x0 DUP1 PUSH1 0x0 DUP1 PUSH1 0x0 PUSH2 0x100 DUP11 DUP13 SUB SLT ISZERO PUSH2 0xACA JUMPI PUSH2 0xAC9 PUSH2 0x6DD JUMP JUMPDEST JUMPDEST PUSH1 0x0 PUSH2 0xAD8 DUP13 DUP3 DUP14 ADD PUSH2 0x730 JUMP JUMPDEST SWAP10 POP POP PUSH1 0x20 PUSH2 0xAE9 DUP13 DUP3 DUP14 ADD PUSH2 0x766 JUMP JUMPDEST SWAP9 POP POP PUSH1 0x40 PUSH2 0xAFA DUP13 DUP3 DUP14 ADD PUSH2 0x730 JUMP JUMPDEST SWAP8 POP POP PUSH1 0x60 PUSH2 0xB0B DUP13 DUP3 DUP14 ADD PUSH2 0x766 JUMP JUMPDEST SWAP7 POP POP PUSH1 0x80 PUSH2 0xB1C DUP13 DUP3 DUP14 ADD PUSH2 0x766 JUMP JUMPDEST SWAP6 POP POP PUSH1 0xA0 DUP11 ADD CALLDATALOAD PUSH8 0xFFFFFFFFFFFFFFFF DUP2 GT ISZERO PUSH2 0xB3D JUMPI PUSH2 0xB3C PUSH2 0x6E2 JUMP JUMPDEST JUMPDEST PUSH2 0xB49 DUP13 DUP3 DUP14 ADD PUSH2 0x82F JUMP JUMPDEST SWAP5 POP SWAP5 POP POP PUSH1 0xC0 DUP11 ADD CALLDATALOAD PUSH8 0xFFFFFFFFFFFFFFFF DUP2 GT ISZERO PUSH2 0xB6C JUMPI PUSH2 0xB6B PUSH2 0x6E2 JUMP JUMPDEST JUMPDEST PUSH2 0xB78 DUP13 DUP3 DUP14 ADD PUSH2 0x998 JUMP JUMPDEST SWAP3 POP POP PUSH1 0xE0 DUP11 ADD CALLDATALOAD PUSH8 0xFFFFFFFFFFFFFFFF DUP2 GT ISZERO PUSH2 0xB99 JUMPI PUSH2 0xB98 PUSH2 0x6E2 JUMP JUMPDEST JUMPDEST PUSH2 0xBA5 DUP13 DUP3 DUP14 ADD PUSH2 0xA79 JUMP JUMPDEST SWAP2 POP POP SWAP3 SWAP6 SWAP9 POP SWAP3 SWAP6 SWAP9 POP SWAP3 SWAP6 SWAP9 JUMP JUMPDEST PUSH1 0x0 DUP1 PUSH1 0x40 DUP4 DUP6 SUB SLT ISZERO PUSH2 0xBCC JUMPI PUSH2 0xBCB PUSH2 0x6DD JUMP JUMPDEST JUMPDEST PUSH1 0x0 DUP4 ADD CALLDATALOAD PUSH8 0xFFFFFFFFFFFFFFFF DUP2 GT ISZERO PUSH2 0xBEA JUMPI PUSH2 0xBE9 PUSH2 0x6E2 JUMP JUMPDEST JUMPDEST PUSH2 0xBF6 DUP6 DUP3 DUP7 ADD PUSH2 0x998 JUMP JUMPDEST SWAP3 POP POP PUSH1 0x20 DUP4 ADD CALLDATALOAD PUSH8 0xFFFFFFFFFFFFFFFF DUP2 GT ISZERO PUSH2 0xC17 JUMPI PUSH2 0xC16 PUSH2 0x6E2 JUMP JUMPDEST JUMPDEST PUSH2 0xC23 DUP6 DUP3 DUP7 ADD PUSH2 0xA79 JUMP JUMPDEST SWAP2 POP POP SWAP3 POP SWAP3 SWAP1 POP JUMP JUMPDEST PUSH1 0x0 PUSH1 0x20 DUP3 DUP5 SUB SLT ISZERO PUSH2 0xC43 JUMPI PUSH2 0xC42 PUSH2 0x6DD JUMP JUMPDEST JUMPDEST PUSH1 0x0 PUSH2 0xC51 DUP5 DUP3 DUP6 ADD PUSH2 0x766 JUMP JUMPDEST SWAP2 POP POP SWAP3 SWAP2 POP POP JUMP JUMPDEST PUSH1 0x0 DUP2 MLOAD SWAP1 POP SWAP2 SWAP1 POP JUMP JUMPDEST PUSH1 0x0 DUP3 DUP3 MSTORE PUSH1 0x20 DUP3 ADD SWAP1 POP SWAP3 SWAP2 POP POP JUMP JUMPDEST PUSH1 0x0 JUMPDEST DUP4 DUP2 LT ISZERO PUSH2 0xC94 JUMPI DUP1 DUP3 ADD MLOAD DUP2 DUP5 ADD MSTORE PUSH1 0x20 DUP2 ADD SWAP1 POP PUSH2 0xC79 JUMP JUMPDEST PUSH1 0x0 DUP5 DUP5 ADD MSTORE POP POP POP POP JUMP JUMPDEST PUSH1 0x0 PUSH2 0xCAB DUP3 PUSH2 0xC5A JUMP JUMPDEST PUSH2 0xCB5 DUP2 DUP6 PUSH2 0xC65 JUMP JUMPDEST SWAP4 POP PUSH2 0xCC5 DUP2 DUP6 PUSH1 0x20 DUP7 ADD PUSH2 0xC76 JUMP JUMPDEST PUSH2 0xCCE DUP2 PUSH2 0x88A JUMP JUMPDEST DUP5 ADD SWAP2 POP POP SWAP3 SWAP2 POP POP JUMP JUMPDEST PUSH1 0x0 DUP2 MLOAD SWAP1 POP SWAP2 SWAP1 POP JUMP JUMPDEST PUSH1 0x0 DUP3 DUP3 MSTORE PUSH1 0x20 DUP3 ADD SWAP1 POP SWAP3 SWAP2 POP POP JUMP JUMPDEST PUSH1 0x0 DUP2 SWAP1 POP PUSH1 0x20 DUP3 ADD SWAP1 POP SWAP2 SWAP1 POP JUMP JUMPDEST PUSH1 0x0 DUP3 DUP3 MSTORE PUSH1 0x20 DUP3 ADD SWAP1 POP SWAP3 SWAP2 POP POP JUMP JUMPDEST PUSH1 0x0 PUSH2 0xD21 DUP3 PUSH2 0xC5A JUMP JUMPDEST PUSH2 0xD2B DUP2 DUP6 PUSH2 0xD05 JUMP JUMPDEST SWAP4 POP PUSH2 0xD3B DUP2 DUP6 PUSH1 0x20 DUP7 ADD PUSH2 0xC76 JUMP JUMPDEST PUSH2 0xD44 DUP2 PUSH2 0x88A JUMP JUMPDEST DUP5 ADD SWAP2 POP POP SWAP3 SWAP2 POP POP JUMP JUMPDEST PUSH1 0x0 PUSH2 0xD5B DUP4 DUP4 PUSH2 0xD16 JUMP JUMPDEST SWAP1 POP SWAP3 SWAP2 POP POP JUMP JUMPDEST PUSH1 0x0 PUSH1 0x20 DUP3 ADD SWAP1 POP SWAP2 SWAP1 POP JUMP JUMPDEST PUSH1 0x0 PUSH2 0xD7B DUP3 PUSH2 0xCD9 JUMP JUMPDEST PUSH2 0xD85 DUP2 DUP6 PUSH2 0xCE4 JUMP JUMPDEST SWAP4 POP DUP4 PUSH1 0x20 DUP3 MUL DUP6 ADD PUSH2 0xD97 DUP6 PUSH2 0xCF5 JUMP JUMPDEST DUP1 PUSH1 0x0 JUMPDEST DUP6 DUP2 LT ISZERO PUSH2 0xDD3 JUMPI DUP5 DUP5 SUB DUP10 MSTORE DUP2 MLOAD PUSH2 0xDB4 DUP6 DUP3 PUSH2 0xD4F JUMP JUMPDEST SWAP5 POP PUSH2 0xDBF DUP4 PUSH2 0xD63 JUMP JUMPDEST SWAP3 POP PUSH1 0x20 DUP11 ADD SWAP10 POP POP PUSH1 0x1 DUP2 ADD SWAP1 POP PUSH2 0xD9B JUMP JUMPDEST POP DUP3 SWAP8 POP DUP8 SWAP6 POP POP POP POP POP POP SWAP3 SWAP2 POP POP JUMP JUMPDEST PUSH1 0x0 PUSH1 0x40 DUP3 ADD SWAP1 POP DUP2 DUP2 SUB PUSH1 0x0 DUP4 ADD MSTORE PUSH2 0xDFF DUP2 DUP6 PUSH2 0xCA0 JUMP JUMPDEST SWAP1 POP DUP2 DUP2 SUB PUSH1 0x20 DUP4 ADD MSTORE PUSH2 0xE13 DUP2 DUP5 PUSH2 0xD70 JUMP JUMPDEST SWAP1 POP SWAP4 SWAP3 POP POP POP JUMP JUMPDEST PUSH2 0xE25 DUP2 PUSH2 0x745 JUMP JUMPDEST DUP3 MSTORE POP POP JUMP JUMPDEST PUSH1 0x0 PUSH1 0x60 DUP3 ADD SWAP1 POP PUSH2 0xE40 PUSH1 0x0 DUP4 ADD DUP7 PUSH2 0x7F6 JUMP JUMPDEST PUSH2 0xE4D PUSH1 0x20 DUP4 ADD DUP6 PUSH2 0xE1C JUMP JUMPDEST PUSH2 0xE5A PUSH1 0x40 DUP4 ADD DUP5 PUSH2 0xE1C JUMP JUMPDEST SWAP5 SWAP4 POP POP POP POP JUMP JUMPDEST PUSH1 0x0 DUP2 SWAP1 POP SWAP3 SWAP2 POP POP JUMP JUMPDEST PUSH1 0x0 PUSH2 0xE79 DUP4 DUP6 PUSH2 0xE62 JUMP JUMPDEST SWAP4 POP PUSH2 0xE86 DUP4 DUP6 DUP5 PUSH2 0x947 JUMP JUMPDEST DUP3 DUP5 ADD SWAP1 POP SWAP4 SWAP3 POP POP POP JUMP JUMPDEST PUSH1 0x0 PUSH2 0xE9F DUP3 DUP5 DUP7 PUSH2 0xE6D JUMP JUMPDEST SWAP2 POP DUP2 SWAP1 POP SWAP4 SWAP3 POP POP POP JUMP JUMPDEST PUSH32 0x4E487B7100000000000000000000000000000000000000000000000000000000 PUSH1 0x0 MSTORE PUSH1 0x22 PUSH1 0x4 MSTORE PUSH1 0x24 PUSH1 0x0 REVERT JUMPDEST PUSH1 0x0 PUSH1 0x2 DUP3 DIV SWAP1 POP PUSH1 0x1 DUP3 AND DUP1 PUSH2 0xEF2 JUMPI PUSH1 0x7F DUP3 AND SWAP2 POP JUMPDEST PUSH1 0x20 DUP3 LT DUP2 SUB PUSH2 0xF05 JUMPI PUSH2 0xF04 PUSH2 0xEAB JUMP JUMPDEST JUMPDEST POP SWAP2 SWAP1 POP JUMP JUMPDEST PUSH1 0x0 DUP2 SWAP1 POP DUP2 PUSH1 0x0 MSTORE PUSH1 0x20 PUSH1 0x0 KECCAK256 SWAP1 POP SWAP2 SWAP1 POP JUMP JUMPDEST PUSH1 0x0 PUSH1 0x20 PUSH1 0x1F DUP4 ADD DIV SWAP1 POP SWAP2 SWAP1 POP JUMP JUMPDEST PUSH1 0x0 DUP3 DUP3 SHL SWAP1 POP SWAP3 SWAP2 POP POP JUMP JUMPDEST PUSH1 0x0 PUSH1 0x8 DUP4 MUL PUSH2 0xF6D PUSH32 0xFFFFFFFFFFFFFFFFFFFFFFFFFFFFFFFFFFFFFFFFFFFFFFFFFFFFFFFFFFFFFFFF DUP3 PUSH2 0xF30 JUMP JUMPDEST PUSH2 0xF77 DUP7 DUP4 PUSH2 0xF30 JUMP JUMPDEST SWAP6 POP DUP1 NOT DUP5 AND SWAP4 POP DUP1 DUP7 AND DUP5 OR SWAP3 POP POP POP SWAP4 SWAP3 POP POP POP JUMP JUMPDEST PUSH1 0x0 DUP2 SWAP1 POP SWAP2 SWAP1 POP JUMP JUMPDEST PUSH1 0x0 PUSH2 0xFB4 PUSH2 0xFAF PUSH2 0xFAA DUP5 PUSH2 0x745 JUMP JUMPDEST PUSH2 0xF8F JUMP JUMPDEST PUSH2 0x745 JUMP JUMPDEST SWAP1 POP SWAP2 SWAP1 POP JUMP JUMPDEST PUSH1 0x0 DUP2 SWAP1 POP SWAP2 SWAP1 POP JUMP JUMPDEST PUSH2 0xFCE DUP4 PUSH2 0xF99 JUMP JUMPDEST PUSH2 0xFE2 PUSH2 0xFDA DUP3 PUSH2 0xFBB JUMP JUMPDEST DUP5 DUP5 SLOAD PUSH2 0xF3D JUMP JUMPDEST DUP3 SSTORE POP POP POP POP JUMP JUMPDEST PUSH1 0x0 SWAP1 JUMP JUMPDEST PUSH2 0xFF7 PUSH2 0xFEA JUMP JUMPDEST PUSH2 0x1002 DUP2 DUP5 DUP5 PUSH2 0xFC5 JUMP JUMPDEST POP POP POP JUMP JUMPDEST JUMPDEST DUP2 DUP2 LT ISZERO PUSH2 0x1026 JUMPI PUSH2 0x101B PUSH1 0x0 DUP3 PUSH2 0xFEF JUMP JUMPDEST PUSH1 0x1 DUP2 ADD SWAP1 POP PUSH2 0x1008 JUMP JUMPDEST POP POP JUMP JUMPDEST PUSH1 0x1F DUP3 GT ISZERO PUSH2 0x106B JUMPI PUSH2 0x103C DUP2 PUSH2 0xF0B JUMP JUMPDEST PUSH2 0x1045 DUP5 PUSH2 0xF20 JUMP JUMPDEST DUP2 ADD PUSH1 0x20 DUP6 LT ISZERO PUSH2 0x1054 JUMPI DUP2 SWAP1 POP JUMPDEST PUSH2 0x1068 PUSH2 0x1060 DUP6 PUSH2 0xF20 JUMP JUMPDEST DUP4 ADD DUP3 PUSH2 0x1007 JUMP JUMPDEST POP POP JUMPDEST POP POP POP JUMP JUMPDEST PUSH1 0x0 DUP3 DUP3 SHR SWAP1 POP SWAP3 SWAP2 POP POP JUMP JUMPDEST PUSH1 0x0 PUSH2 0x108E PUSH1 0x0 NOT DUP5 PUSH1 0x8 MUL PUSH2 0x1070 JUMP JUMPDEST NOT DUP1 DUP4 AND SWAP2 POP POP SWAP3 SWAP2 POP POP JUMP JUMPDEST PUSH1 0x0 PUSH2 0x10A7 DUP4 DUP4 PUSH2 0x107D JUMP JUMPDEST SWAP2 POP DUP3 PUSH1 0x2 MUL DUP3 OR SWAP1 POP SWAP3 SWAP2 POP POP JUMP JUMPDEST PUSH2 0x10C0 DUP3 PUSH2 0xC5A JUMP JUMPDEST PUSH8 0xFFFFFFFFFFFFFFFF DUP2 GT ISZERO PUSH2 0x10D9 JUMPI PUSH2 0x10D8 PUSH2 0x89B JUMP JUMPDEST JUMPDEST PUSH2 0x10E3 DUP3 SLOAD PUSH2 0xEDA JUMP JUMPDEST PUSH2 0x10EE DUP3 DUP3 DUP6 PUSH2 0x102A JUMP JUMPDEST PUSH1 0x0 PUSH1 0x20 SWAP1 POP PUSH1 0x1F DUP4 GT PUSH1 0x1 DUP2 EQ PUSH2 0x1121 JUMPI PUSH1 0x0 DUP5 ISZERO PUSH2 0x110F JUMPI DUP3 DUP8 ADD MLOAD SWAP1 POP JUMPDEST PUSH2 0x1119 DUP6 DUP3 PUSH2 0x109B JUMP JUMPDEST DUP7 SSTORE POP PUSH2 0x1181 JUMP JUMPDEST PUSH1 0x1F NOT DUP5 AND PUSH2 0x112F DUP7 PUSH2 0xF0B JUMP JUMPDEST PUSH1 0x0 JUMPDEST DUP3 DUP2 LT ISZERO PUSH2 0x1157 JUMPI DUP5 DUP10 ADD MLOAD DUP3 SSTORE PUSH1 0x1 DUP3 ADD SWAP2 POP PUSH1 0x20 DUP6 ADD SWAP5 POP PUSH1 0x20 DUP2 ADD SWAP1 POP PUSH2 0x1132 JUMP JUMPDEST DUP7 DUP4 LT ISZERO PUSH2 0x1174 JUMPI DUP5 DUP10 ADD MLOAD PUSH2 0x1170 PUSH1 0x1F DUP10 AND DUP3 PUSH2 0x107D JUMP JUMPDEST DUP4 SSTORE POP JUMPDEST PUSH1 0x1 PUSH1 0x2 DUP9 MUL ADD DUP9 SSTORE POP POP POP JUMPDEST POP POP POP POP POP POP JUMP JUMPDEST PUSH32 0x4E487B7100000000000000000000000000000000000000000000000000000000 PUSH1 0x0 MSTORE PUSH1 0x11 PUSH1 0x4 MSTORE PUSH1 0x24 PUSH1 0x0 REVERT JUMPDEST PUSH1 0x0 PUSH2 0x11C3 DUP3 PUSH2 0x745 JUMP JUMPDEST SWAP2 POP PUSH32 0xFFFFFFFFFFFFFFFFFFFFFFFFFFFFFFFFFFFFFFFFFFFFFFFFFFFFFFFFFFFFFFFF DUP3 SUB PUSH2 0x11F5 JUMPI PUSH2 0x11F4 PUSH2 0x1189 JUMP JUMPDEST JUMPDEST PUSH1 0x1 DUP3 ADD SWAP1 POP SWAP2 SWAP1 POP JUMP JUMPDEST PUSH32 0x4E487B7100000000000000000000000000000000000000000000000000000000 PUSH1 0x0 MSTORE PUSH1 0x32 PUSH1 0x4 MSTORE PUSH1 0x24 PUSH1 0x0 REVERT JUMPDEST PUSH1 0x0 PUSH1 0x80 DUP3 ADD SWAP1 POP PUSH2 0x1244 PUSH1 0x0 DUP4 ADD DUP8 PUSH2 0xE1C JUMP JUMPDEST PUSH2 0x1251 PUSH1 0x20 DUP4 ADD DUP7 PUSH2 0xE1C JUMP JUMPDEST PUSH2 0x125E PUSH1 0x40 DUP4 ADD DUP6 PUSH2 0x7F6 JUMP JUMPDEST PUSH2 0x126B PUSH1 0x60 DUP4 ADD DUP5 PUSH2 0xE1C JUMP JUMPDEST SWAP6 SWAP5 POP POP POP POP POP JUMP JUMPDEST PUSH1 0x0 DUP2 SWAP1 POP SWAP3 SWAP2 POP POP JUMP JUMPDEST PUSH32 0x3D60AD80600A3D3981F3363D3D373D3D3D363D73000000000000000000000000 PUSH1 0x0 DUP3 ADD MSTORE POP JUMP JUMPDEST PUSH1 0x0 PUSH2 0x12B5 PUSH1 0x14 DUP4 PUSH2 0x1274 JUMP JUMPDEST SWAP2 POP PUSH2 0x12C0 DUP3 PUSH2 0x127F JUMP JUMPDEST PUSH1 0x14 DUP3 ADD SWAP1 POP SWAP2 SWAP1 POP JUMP JUMPDEST PUSH1 0x0 DUP2 PUSH1 0x60 SHL SWAP1 POP SWAP2 SWAP1 POP JUMP JUMPDEST PUSH1 0x0 PUSH2 0x12E3 DUP3 PUSH2 0x12CB JUMP JUMPDEST SWAP1 POP SWAP2 SWAP1 POP JUMP JUMPDEST PUSH1 0x0 PUSH2 0x12F5 DUP3 PUSH2 0x12D8 JUMP JUMPDEST SWAP1 POP SWAP2 SWAP1 POP JUMP JUMPDEST PUSH2 0x130D PUSH2 0x1308 DUP3 PUSH2 0x707 JUMP JUMPDEST PUSH2 0x12EA JUMP JUMPDEST DUP3 MSTORE POP POP JUMP JUMPDEST PUSH32 0x5AF43D82803E903D91602B57FD5BF30000000000000000000000000000000000 PUSH1 0x0 DUP3 ADD MSTORE POP JUMP JUMPDEST PUSH1 0x0 PUSH2 0x1349 PUSH1 0xF DUP4 PUSH2 0x1274 JUMP JUMPDEST SWAP2 POP PUSH2 0x1354 DUP3 PUSH2 0x1313 JUMP JUMPDEST PUSH1 0xF DUP3 ADD SWAP1 POP SWAP2 SWAP1 POP JUMP JUMPDEST PUSH1 0x0 DUP2 MLOAD SWAP1 POP SWAP2 SWAP1 POP JUMP JUMPDEST PUSH1 0x0 PUSH2 0x1375 DUP3 PUSH2 0x135F JUMP JUMPDEST PUSH2 0x137F DUP2 DUP6 PUSH2 0xE62 JUMP JUMPDEST SWAP4 POP PUSH2 0x138F DUP2 DUP6 PUSH1 0x20 DUP7 ADD PUSH2 0xC76 JUMP JUMPDEST DUP1 DUP5 ADD SWAP2 POP POP SWAP3 SWAP2 POP POP JUMP JUMPDEST PUSH1 0x0 PUSH2 0x13A6 DUP3 PUSH2 0x12A8 JUMP JUMPDEST SWAP2 POP PUSH2 0x13B2 DUP3 DUP6 PUSH2 0x12FC JUMP JUMPDEST PUSH1 0x14 DUP3 ADD SWAP2 POP PUSH2 0x13C1 DUP3 PUSH2 0x133C JUMP JUMPDEST SWAP2 POP PUSH2 0x13CD DUP3 DUP5 PUSH2 0x136A JUMP JUMPDEST SWAP2 POP DUP2 SWAP1 POP SWAP4 SWAP3 POP POP POP JUMP INVALID LOG2 PUSH5 0x6970667358 0x22 SLT KECCAK256 0xE7 0xF PUSH17 0x28BE9C3CC8CC012283B61AB62DCAF3203A 0xC4 SSTORE CODESIZE SHR 0xB4 0xE6 PUSH9 0xA4FF0D5E3E64736F6C PUSH4 0x43000816 STOP CALLER "},"methodIdentifiers":{"account(address,uint256,address,uint256,uint256)":"5e9bc536","createAccount(address,uint256,address,uint256,uint256,bytes,string,string[])":"6b19734f","getAccountDetailsById(uint256)":"f2f4d357","saveAccountDetails(string,string[])":"cce32fc4"}}}}}