{
  "_format": "hh-sol-artifact-1",
  "contractName": "ERC6551Account",
  "sourceName": "contracts/ERC6551Account.sol",
  "abi": [
    {
      "inputs": [],
      "name": "accountName",
      "outputs": [
        {
          "internalType": "bytes32",
          "name": "",
          "type": "bytes32"
        }
      ],
      "stateMutability": "view",
      "type": "function"
    },
    {
      "inputs": [
        {
          "internalType": "address",
          "name": "to",
          "type": "address"
        },
        {
          "internalType": "uint256",
          "name": "value",
          "type": "uint256"
        },
        {
          "internalType": "bytes",
          "name": "data",
          "type": "bytes"
        },
        {
          "internalType": "uint256",
          "name": "operation",
          "type": "uint256"
        }
      ],
      "name": "execute",
      "outputs": [
        {
          "internalType": "bytes",
          "name": "result",
          "type": "bytes"
        }
      ],
      "stateMutability": "payable",
      "type": "function"
    },
    {
      "inputs": [],
      "name": "getAccountName",
      "outputs": [
        {
          "internalType": "bytes32",
          "name": "",
          "type": "bytes32"
        }
      ],
      "stateMutability": "view",
      "type": "function"
    },
    {
      "inputs": [
        {
          "internalType": "bytes32",
          "name": "hash",
          "type": "bytes32"
        },
        {
          "internalType": "bytes",
          "name": "signature",
          "type": "bytes"
        }
      ],
      "name": "isValidSignature",
      "outputs": [
        {
          "internalType": "bytes4",
          "name": "magicValue",
          "type": "bytes4"
        }
      ],
      "stateMutability": "view",
      "type": "function"
    },
    {
      "inputs": [
        {
          "internalType": "address",
          "name": "signer",
          "type": "address"
        },
        {
          "internalType": "bytes",
          "name": "",
          "type": "bytes"
        }
      ],
      "name": "isValidSigner",
      "outputs": [
        {
          "internalType": "bytes4",
          "name": "",
          "type": "bytes4"
        }
      ],
      "stateMutability": "view",
      "type": "function"
    },
    {
      "inputs": [],
      "name": "owner",
      "outputs": [
        {
          "internalType": "address",
          "name": "",
          "type": "address"
        }
      ],
      "stateMutability": "view",
      "type": "function"
    },
    {
      "inputs": [
        {
          "internalType": "bytes32",
          "name": "newName_",
          "type": "bytes32"
        }
      ],
      "name": "setAccountName",
      "outputs": [],
      "stateMutability": "nonpayable",
      "type": "function"
    },
    {
      "inputs": [],
      "name": "state",
      "outputs": [
        {
          "internalType": "uint256",
          "name": "",
          "type": "uint256"
        }
      ],
      "stateMutability": "view",
      "type": "function"
    },
    {
      "inputs": [
        {
          "internalType": "bytes4",
          "name": "interfaceId",
          "type": "bytes4"
        }
      ],
      "name": "supportsInterface",
      "outputs": [
        {
          "internalType": "bool",
          "name": "",
          "type": "bool"
        }
      ],
      "stateMutability": "pure",
      "type": "function"
    },
    {
      "inputs": [],
      "name": "token",
      "outputs": [
        {
          "internalType": "uint256",
          "name": "",
          "type": "uint256"
        },
        {
          "internalType": "address",
          "name": "",
          "type": "address"
        },
        {
          "internalType": "uint256",
          "name": "",
          "type": "uint256"
        }
      ],
      "stateMutability": "view",
      "type": "function"
    },
    {
      "stateMutability": "payable",
      "type": "receive"
    }
  ],
  "bytecode": "0x608060405234801561001057600080fd5b50611495806100206000396000f3fe6080604052600436106100955760003560e01c80638da5cb5b116100595780638da5cb5b146101b3578063a459f024146101de578063c19d93fb14610207578063c5e5798514610232578063fc0c546a1461025d5761009c565b806301ffc9a7146100a15780631626ba7e146100de578063523e32601461011b578063638dc2b51461015857806374420f4c146101835761009c565b3661009c57005b600080fd5b3480156100ad57600080fd5b506100c860048036038101906100c39190610a9a565b61028a565b6040516100d59190610ae2565b60405180910390f35b3480156100ea57600080fd5b5061010560048036038101906101009190610c79565b6103c4565b6040516101129190610ce4565b60405180910390f35b34801561012757600080fd5b50610142600480360381019061013d9190610dbd565b6103fd565b60405161014f9190610ce4565b60405180910390f35b34801561016457600080fd5b5061016d61042b565b60405161017a9190610e2c565b60405180910390f35b61019d60048036038101906101989190610e7d565b610435565b6040516101aa9190610f84565b60405180910390f35b3480156101bf57600080fd5b506101c8610563565b6040516101d59190610fb5565b60405180910390f35b3480156101ea57600080fd5b5061020560048036038101906102009190610fd0565b61060d565b005b34801561021357600080fd5b5061021c61065f565b604051610229919061100c565b60405180910390f35b34801561023e57600080fd5b50610247610665565b6040516102549190610e2c565b60405180910390f35b34801561026957600080fd5b5061027261066b565b60405161028193929190611027565b60405180910390f35b60007f01ffc9a7000000000000000000000000000000000000000000000000000000007bffffffffffffffffffffffffffffffffffffffffffffffffffffffff1916827bffffffffffffffffffffffffffffffffffffffffffffffffffffffff1916148061035557507f6faff5f1000000000000000000000000000000000000000000000000000000007bffffffffffffffffffffffffffffffffffffffffffffffffffffffff1916827bffffffffffffffffffffffffffffffffffffffffffffffffffffffff1916145b806103bd57507f74420f4c000000000000000000000000000000000000000000000000000000007bffffffffffffffffffffffffffffffffffffffffffffffffffffffff1916827bffffffffffffffffffffffffffffffffffffffffffffffffffffffff1916145b9050919050565b6000806103d96103d2610563565b85856106eb565b905080156103f157631626ba7e60e01b9150506103f7565b60009150505b92915050565b60006104088461077b565b1561041c5763523e326060e01b9050610424565b600060e01b90505b9392505050565b6000600154905090565b60606104403361077b565b61047f576040517f08c379a0000000000000000000000000000000000000000000000000000000008152600401610476906110bb565b60405180910390fd5b600082146104c2576040517f08c379a00000000000000000000000000000000000000000000000000000000081526004016104b99061114d565b60405180910390fd5b60008081546104d09061119c565b9190508190555060008673ffffffffffffffffffffffffffffffffffffffff16868686604051610501929190611214565b60006040518083038185875af1925050503d806000811461053e576040519150601f19603f3d011682016040523d82523d6000602084013e610543565b606091505b5080935081925050508061055957815160208301fd5b5095945050505050565b60008060008061057161066b565b92509250925046831461058a576000935050505061060a565b8173ffffffffffffffffffffffffffffffffffffffff16636352211e826040518263ffffffff1660e01b81526004016105c3919061100c565b602060405180830381865afa1580156105e0573d6000803e3d6000fd5b505050506040513d601f19601f820116820180604052508101906106049190611242565b93505050505b90565b6106163361077b565b610655576040517f08c379a000000000000000000000000000000000000000000000000000000000815260040161064c906110bb565b60405180910390fd5b8060018190555050565b60005481565b60015481565b600080600080606067ffffffffffffffff81111561068c5761068b610b4e565b5b6040519080825280601f01601f1916602001820160405280156106be5781602001600182028036833780820191505090505b5090506060604d60208301303c808060200190518101906106df91906112c2565b93509350935050909192565b60008060006106fa85856107ba565b50915091506000600381111561071357610712611315565b5b81600381111561072657610725611315565b5b14801561075e57508573ffffffffffffffffffffffffffffffffffffffff168273ffffffffffffffffffffffffffffffffffffffff16145b80610770575061076f868686610816565b5b925050509392505050565b6000610785610563565b73ffffffffffffffffffffffffffffffffffffffff168273ffffffffffffffffffffffffffffffffffffffff16149050919050565b600080600060418451036107ff5760008060006020870151925060408701519150606087015160001a90506107f18882858561093a565b95509550955050505061080f565b60006002855160001b9250925092505b9250925092565b60008060008573ffffffffffffffffffffffffffffffffffffffff168585604051602401610845929190611344565b604051602081830303815290604052631626ba7e60e01b6020820180517bffffffffffffffffffffffffffffffffffffffffffffffffffffffff838183161783525050505060405161089791906113a5565b600060405180830381855afa9150503d80600081146108d2576040519150601f19603f3d011682016040523d82523d6000602084013e6108d7565b606091505b50915091508180156108eb57506020815110155b801561092f5750631626ba7e60e01b7bffffffffffffffffffffffffffffffffffffffffffffffffffffffff19168180602001905181019061092d91906113d1565b145b925050509392505050565b60008060007f7fffffffffffffffffffffffffffffff5d576e7357a4501ddfe92f46681b20a08460001c111561097a576000600385925092509250610a24565b60006001888888886040516000815260200160405260405161099f949392919061141a565b6020604051602081039080840390855afa1580156109c1573d6000803e3d6000fd5b505050602060405103519050600073ffffffffffffffffffffffffffffffffffffffff168173ffffffffffffffffffffffffffffffffffffffff1603610a1557600060016000801b93509350935050610a24565b8060008060001b935093509350505b9450945094915050565b6000604051905090565b600080fd5b600080fd5b60007fffffffff0000000000000000000000000000000000000000000000000000000082169050919050565b610a7781610a42565b8114610a8257600080fd5b50565b600081359050610a9481610a6e565b92915050565b600060208284031215610ab057610aaf610a38565b5b6000610abe84828501610a85565b91505092915050565b60008115159050919050565b610adc81610ac7565b82525050565b6000602082019050610af76000830184610ad3565b92915050565b6000819050919050565b610b1081610afd565b8114610b1b57600080fd5b50565b600081359050610b2d81610b07565b92915050565b600080fd5b600080fd5b6000601f19601f8301169050919050565b7f4e487b7100000000000000000000000000000000000000000000000000000000600052604160045260246000fd5b610b8682610b3d565b810181811067ffffffffffffffff82111715610ba557610ba4610b4e565b5b80604052505050565b6000610bb8610a2e565b9050610bc48282610b7d565b919050565b600067ffffffffffffffff821115610be457610be3610b4e565b5b610bed82610b3d565b9050602081019050919050565b82818337600083830152505050565b6000610c1c610c1784610bc9565b610bae565b905082815260208101848484011115610c3857610c37610b38565b5b610c43848285610bfa565b509392505050565b600082601f830112610c6057610c5f610b33565b5b8135610c70848260208601610c09565b91505092915050565b60008060408385031215610c9057610c8f610a38565b5b6000610c9e85828601610b1e565b925050602083013567ffffffffffffffff811115610cbf57610cbe610a3d565b5b610ccb85828601610c4b565b9150509250929050565b610cde81610a42565b82525050565b6000602082019050610cf96000830184610cd5565b92915050565b600073ffffffffffffffffffffffffffffffffffffffff82169050919050565b6000610d2a82610cff565b9050919050565b610d3a81610d1f565b8114610d4557600080fd5b50565b600081359050610d5781610d31565b92915050565b600080fd5b600080fd5b60008083601f840112610d7d57610d7c610b33565b5b8235905067ffffffffffffffff811115610d9a57610d99610d5d565b5b602083019150836001820283011115610db657610db5610d62565b5b9250929050565b600080600060408486031215610dd657610dd5610a38565b5b6000610de486828701610d48565b935050602084013567ffffffffffffffff811115610e0557610e04610a3d565b5b610e1186828701610d67565b92509250509250925092565b610e2681610afd565b82525050565b6000602082019050610e416000830184610e1d565b92915050565b6000819050919050565b610e5a81610e47565b8114610e6557600080fd5b50565b600081359050610e7781610e51565b92915050565b600080600080600060808688031215610e9957610e98610a38565b5b6000610ea788828901610d48565b9550506020610eb888828901610e68565b945050604086013567ffffffffffffffff811115610ed957610ed8610a3d565b5b610ee588828901610d67565b93509350506060610ef888828901610e68565b9150509295509295909350565b600081519050919050565b600082825260208201905092915050565b60005b83811015610f3f578082015181840152602081019050610f24565b60008484015250505050565b6000610f5682610f05565b610f608185610f10565b9350610f70818560208601610f21565b610f7981610b3d565b840191505092915050565b60006020820190508181036000830152610f9e8184610f4b565b905092915050565b610faf81610d1f565b82525050565b6000602082019050610fca6000830184610fa6565b92915050565b600060208284031215610fe657610fe5610a38565b5b6000610ff484828501610b1e565b91505092915050565b61100681610e47565b82525050565b60006020820190506110216000830184610ffd565b92915050565b600060608201905061103c6000830186610ffd565b6110496020830185610fa6565b6110566040830184610ffd565b949350505050565b600082825260208201905092915050565b7f496e76616c6964207369676e6572000000000000000000000000000000000000600082015250565b60006110a5600e8361105e565b91506110b08261106f565b602082019050919050565b600060208201905081810360008301526110d481611098565b9050919050565b7f4f6e6c792063616c6c206f7065726174696f6e732061726520737570706f727460008201527f6564000000000000000000000000000000000000000000000000000000000000602082015250565b600061113760228361105e565b9150611142826110db565b604082019050919050565b600060208201905081810360008301526111668161112a565b9050919050565b7f4e487b7100000000000000000000000000000000000000000000000000000000600052601160045260246000fd5b60006111a782610e47565b91507fffffffffffffffffffffffffffffffffffffffffffffffffffffffffffffffff82036111d9576111d861116d565b5b600182019050919050565b600081905092915050565b60006111fb83856111e4565b9350611208838584610bfa565b82840190509392505050565b60006112218284866111ef565b91508190509392505050565b60008151905061123c81610d31565b92915050565b60006020828403121561125857611257610a38565b5b60006112668482850161122d565b91505092915050565b60008151905061127e81610e51565b92915050565b600061128f82610cff565b9050919050565b61129f81611284565b81146112aa57600080fd5b50565b6000815190506112bc81611296565b92915050565b6000806000606084860312156112db576112da610a38565b5b60006112e98682870161126f565b93505060206112fa868287016112ad565b925050604061130b8682870161126f565b9150509250925092565b7f4e487b7100000000000000000000000000000000000000000000000000000000600052602160045260246000fd5b60006040820190506113596000830185610e1d565b818103602083015261136b8184610f4b565b90509392505050565b600061137f82610f05565b61138981856111e4565b9350611399818560208601610f21565b80840191505092915050565b60006113b18284611374565b915081905092915050565b6000815190506113cb81610b07565b92915050565b6000602082840312156113e7576113e6610a38565b5b60006113f5848285016113bc565b91505092915050565b600060ff82169050919050565b611414816113fe565b82525050565b600060808201905061142f6000830187610e1d565b61143c602083018661140b565b6114496040830185610e1d565b6114566060830184610e1d565b9594505050505056fea2646970667358221220ccbbfb3f4348ea09827a4d0c5b6029eb1bc3f32661fc386122428b6cb37f975264736f6c63430008160033",
  "linkReferences": {},
  "deployedLinkReferences": {}
}