{
  "_format": "hh-sol-artifact-1",
  "contractName": "ERC6551Registry",
  "sourceName": "contracts/ERC6551Registry.sol",
  "abi": [
    {
      "inputs": [],
      "name": "AccountCreationFailed",
      "type": "error"
    },
    {
      "anonymous": false,
      "inputs": [
        {
          "indexed": false,
          "internalType": "address",
          "name": "account",
          "type": "address"
        },
        {
          "indexed": true,
          "internalType": "address",
          "name": "implementation",
          "type": "address"
        },
        {
          "indexed": false,
          "internalType": "uint256",
          "name": "chainId",
          "type": "uint256"
        },
        {
          "indexed": true,
          "internalType": "address",
          "name": "tokenContract",
          "type": "address"
        },
        {
          "indexed": true,
          "internalType": "uint256",
          "name": "tokenId",
          "type": "uint256"
        },
        {
          "indexed": false,
          "internalType": "uint256",
          "name": "salt",
          "type": "uint256"
        }
      ],
      "name": "AccountCreated",
      "type": "event"
    },
    {
      "inputs": [
        {
          "internalType": "address",
          "name": "implementation",
          "type": "address"
        },
        {
          "internalType": "uint256",
          "name": "chainId",
          "type": "uint256"
        },
        {
          "internalType": "address",
          "name": "tokenContract",
          "type": "address"
        },
        {
          "internalType": "uint256",
          "name": "tokenId",
          "type": "uint256"
        },
        {
          "internalType": "uint256",
          "name": "salt",
          "type": "uint256"
        }
      ],
      "name": "account",
      "outputs": [
        {
          "internalType": "address",
          "name": "",
          "type": "address"
        }
      ],
      "stateMutability": "view",
      "type": "function"
    },
    {
      "inputs": [
        {
          "internalType": "address",
          "name": "implementation",
          "type": "address"
        },
        {
          "internalType": "uint256",
          "name": "chainId",
          "type": "uint256"
        },
        {
          "internalType": "address",
          "name": "tokenContract",
          "type": "address"
        },
        {
          "internalType": "uint256",
          "name": "tokenId",
          "type": "uint256"
        },
        {
          "internalType": "uint256",
          "name": "salt",
          "type": "uint256"
        },
        {
          "internalType": "bytes",
          "name": "initData",
          "type": "bytes"
        },
        {
          "internalType": "string",
          "name": "guild",
          "type": "string"
        },
        {
          "internalType": "string[]",
          "name": "socialAccounts",
          "type": "string[]"
        }
      ],
      "name": "createAccount",
      "outputs": [
        {
          "internalType": "address",
          "name": "",
          "type": "address"
        }
      ],
      "stateMutability": "nonpayable",
      "type": "function"
    },
    {
      "inputs": [
        {
          "internalType": "uint256",
          "name": "_id",
          "type": "uint256"
        }
      ],
      "name": "getAccountDetailsById",
      "outputs": [
        {
          "internalType": "string",
          "name": "",
          "type": "string"
        },
        {
          "internalType": "string[]",
          "name": "",
          "type": "string[]"
        }
      ],
      "stateMutability": "view",
      "type": "function"
    },
    {
      "inputs": [
        {
          "internalType": "string",
          "name": "guild",
          "type": "string"
        },
        {
          "internalType": "string[]",
          "name": "socialAccount",
          "type": "string[]"
        }
      ],
      "name": "saveAccountDetails",
      "outputs": [],
      "stateMutability": "nonpayable",
      "type": "function"
    }
  ],
  "bytecode": "0x608060405234801561001057600080fd5b5061140f806100206000396000f3fe608060405234801561001057600080fd5b506004361061004c5760003560e01c80635e9bc536146100515780636b19734f14610081578063cce32fc4146100b1578063f2f4d357146100cd575b600080fd5b61006b6004803603810190610066919061077b565b6100fe565b6040516100789190610805565b60405180910390f35b61009b60048036038101906100969190610aa7565b610130565b6040516100a89190610805565b60405180910390f35b6100cb60048036038101906100c69190610bb5565b610308565b005b6100e760048036038101906100e29190610c2d565b6103b0565b6040516100f5929190610de5565b60405180910390f35b60008061010e8787878787610565565b8051906020012090506101248360001b826105b9565b91505095945050505050565b6000806101408b8b8b8b8b610565565b905060006101588860001b83805190602001206105b9565b905060008173ffffffffffffffffffffffffffffffffffffffff163b146101835780925050506102fb565b888a73ffffffffffffffffffffffffffffffffffffffff168d73ffffffffffffffffffffffffffffffffffffffff167f07fba7bba1191da7ee1155dcfa0030701c9c9a9cc34a93b991fc6fd0c9268d8f848f8d6040516101e593929190610e2b565b60405180910390a4878251602084016000f59050600073ffffffffffffffffffffffffffffffffffffffff168173ffffffffffffffffffffffffffffffffffffffff160361025f576040517f20188a5900000000000000000000000000000000000000000000000000000000815260040160405180910390fd5b600087879050146102eb576000808273ffffffffffffffffffffffffffffffffffffffff168989604051610294929190610e92565b6000604051808303816000865af19150503d80600081146102d1576040519150601f19603f3d011682016040523d82523d6000602084013e6102d6565b606091505b5091509150816102e857805160208201fd5b50505b6102f58585610308565b80925050505b9998505050505050505050565b600060405180606001604052806000548152602001848152602001838152509050600181908060018154018082558091505060019003906000526020600020906003020160009091909190915060008201518160000155602082015181600101908161037491906110b7565b5060408201518160020190805190602001906103919291906105f9565b5050506000808154809291906103a6906111b8565b9190505550505050565b606080600183815481106103c7576103c6611200565b5b9060005260206000209060030201600101600184815481106103ec576103eb611200565b5b906000526020600020906003020160020181805461040990610eda565b80601f016020809104026020016040519081016040528092919081815260200182805461043590610eda565b80156104825780601f1061045757610100808354040283529160200191610482565b820191906000526020600020905b81548152906001019060200180831161046557829003601f168201915b5050505050915080805480602002602001604051908101604052809291908181526020016000905b828210156105565783829060005260206000200180546104c990610eda565b80601f01602080910402602001604051908101604052809291908181526020018280546104f590610eda565b80156105425780601f1061051757610100808354040283529160200191610542565b820191906000526020600020905b81548152906001019060200180831161052557829003601f168201915b5050505050815260200190600101906104aa565b50505050905091509150915091565b6060858286868660405160200161057f949392919061122f565b60405160208183030381529060405260405160200161059f92919061139b565b604051602081830303815290604052905095945050505050565b60006105c68383306105ce565b905092915050565b6000604051836040820152846020820152828152600b810160ff815360558120925050509392505050565b828054828255906000526020600020908101928215610641579160200282015b8281111561064057825182908161063091906110b7565b5091602001919060010190610619565b5b50905061064e9190610652565b5090565b5b8082111561067257600081816106699190610676565b50600101610653565b5090565b50805461068290610eda565b6000825580601f1061069457506106b3565b601f0160209004906000526020600020908101906106b291906106b6565b5b50565b5b808211156106cf5760008160009055506001016106b7565b5090565b6000604051905090565b600080fd5b600080fd5b600073ffffffffffffffffffffffffffffffffffffffff82169050919050565b6000610712826106e7565b9050919050565b61072281610707565b811461072d57600080fd5b50565b60008135905061073f81610719565b92915050565b6000819050919050565b61075881610745565b811461076357600080fd5b50565b6000813590506107758161074f565b92915050565b600080600080600060a08688031215610797576107966106dd565b5b60006107a588828901610730565b95505060206107b688828901610766565b94505060406107c788828901610730565b93505060606107d888828901610766565b92505060806107e988828901610766565b9150509295509295909350565b6107ff81610707565b82525050565b600060208201905061081a60008301846107f6565b92915050565b600080fd5b600080fd5b600080fd5b60008083601f84011261084557610844610820565b5b8235905067ffffffffffffffff81111561086257610861610825565b5b60208301915083600182028301111561087e5761087d61082a565b5b9250929050565b600080fd5b6000601f19601f8301169050919050565b7f4e487b7100000000000000000000000000000000000000000000000000000000600052604160045260246000fd5b6108d38261088a565b810181811067ffffffffffffffff821117156108f2576108f161089b565b5b80604052505050565b60006109056106d3565b905061091182826108ca565b919050565b600067ffffffffffffffff8211156109315761093061089b565b5b61093a8261088a565b9050602081019050919050565b82818337600083830152505050565b600061096961096484610916565b6108fb565b90508281526020810184848401111561098557610984610885565b5b610990848285610947565b509392505050565b600082601f8301126109ad576109ac610820565b5b81356109bd848260208601610956565b91505092915050565b600067ffffffffffffffff8211156109e1576109e061089b565b5b602082029050602081019050919050565b6000610a05610a00846109c6565b6108fb565b90508083825260208201905060208402830185811115610a2857610a2761082a565b5b835b81811015610a6f57803567ffffffffffffffff811115610a4d57610a4c610820565b5b808601610a5a8982610998565b85526020850194505050602081019050610a2a565b5050509392505050565b600082601f830112610a8e57610a8d610820565b5b8135610a9e8482602086016109f2565b91505092915050565b60008060008060008060008060006101008a8c031215610aca57610ac96106dd565b5b6000610ad88c828d01610730565b9950506020610ae98c828d01610766565b9850506040610afa8c828d01610730565b9750506060610b0b8c828d01610766565b9650506080610b1c8c828d01610766565b95505060a08a013567ffffffffffffffff811115610b3d57610b3c6106e2565b5b610b498c828d0161082f565b945094505060c08a013567ffffffffffffffff811115610b6c57610b6b6106e2565b5b610b788c828d01610998565b92505060e08a013567ffffffffffffffff811115610b9957610b986106e2565b5b610ba58c828d01610a79565b9150509295985092959850929598565b60008060408385031215610bcc57610bcb6106dd565b5b600083013567ffffffffffffffff811115610bea57610be96106e2565b5b610bf685828601610998565b925050602083013567ffffffffffffffff811115610c1757610c166106e2565b5b610c2385828601610a79565b9150509250929050565b600060208284031215610c4357610c426106dd565b5b6000610c5184828501610766565b91505092915050565b600081519050919050565b600082825260208201905092915050565b60005b83811015610c94578082015181840152602081019050610c79565b60008484015250505050565b6000610cab82610c5a565b610cb58185610c65565b9350610cc5818560208601610c76565b610cce8161088a565b840191505092915050565b600081519050919050565b600082825260208201905092915050565b6000819050602082019050919050565b600082825260208201905092915050565b6000610d2182610c5a565b610d2b8185610d05565b9350610d3b818560208601610c76565b610d448161088a565b840191505092915050565b6000610d5b8383610d16565b905092915050565b6000602082019050919050565b6000610d7b82610cd9565b610d858185610ce4565b935083602082028501610d9785610cf5565b8060005b85811015610dd35784840389528151610db48582610d4f565b9450610dbf83610d63565b925060208a01995050600181019050610d9b565b50829750879550505050505092915050565b60006040820190508181036000830152610dff8185610ca0565b90508181036020830152610e138184610d70565b90509392505050565b610e2581610745565b82525050565b6000606082019050610e4060008301866107f6565b610e4d6020830185610e1c565b610e5a6040830184610e1c565b949350505050565b600081905092915050565b6000610e798385610e62565b9350610e86838584610947565b82840190509392505050565b6000610e9f828486610e6d565b91508190509392505050565b7f4e487b7100000000000000000000000000000000000000000000000000000000600052602260045260246000fd5b60006002820490506001821680610ef257607f821691505b602082108103610f0557610f04610eab565b5b50919050565b60008190508160005260206000209050919050565b60006020601f8301049050919050565b600082821b905092915050565b600060088302610f6d7fffffffffffffffffffffffffffffffffffffffffffffffffffffffffffffffff82610f30565b610f778683610f30565b95508019841693508086168417925050509392505050565b6000819050919050565b6000610fb4610faf610faa84610745565b610f8f565b610745565b9050919050565b6000819050919050565b610fce83610f99565b610fe2610fda82610fbb565b848454610f3d565b825550505050565b600090565b610ff7610fea565b611002818484610fc5565b505050565b5b818110156110265761101b600082610fef565b600181019050611008565b5050565b601f82111561106b5761103c81610f0b565b61104584610f20565b81016020851015611054578190505b61106861106085610f20565b830182611007565b50505b505050565b600082821c905092915050565b600061108e60001984600802611070565b1980831691505092915050565b60006110a7838361107d565b9150826002028217905092915050565b6110c082610c5a565b67ffffffffffffffff8111156110d9576110d861089b565b5b6110e38254610eda565b6110ee82828561102a565b600060209050601f831160018114611121576000841561110f578287015190505b611119858261109b565b865550611181565b601f19841661112f86610f0b565b60005b8281101561115757848901518255600182019150602085019450602081019050611132565b868310156111745784890151611170601f89168261107d565b8355505b6001600288020188555050505b505050505050565b7f4e487b7100000000000000000000000000000000000000000000000000000000600052601160045260246000fd5b60006111c382610745565b91507fffffffffffffffffffffffffffffffffffffffffffffffffffffffffffffffff82036111f5576111f4611189565b5b600182019050919050565b7f4e487b7100000000000000000000000000000000000000000000000000000000600052603260045260246000fd5b60006080820190506112446000830187610e1c565b6112516020830186610e1c565b61125e60408301856107f6565b61126b6060830184610e1c565b95945050505050565b600081905092915050565b7f3d60ad80600a3d3981f3363d3d373d3d3d363d73000000000000000000000000600082015250565b60006112b5601483611274565b91506112c08261127f565b601482019050919050565b60008160601b9050919050565b60006112e3826112cb565b9050919050565b60006112f5826112d8565b9050919050565b61130d61130882610707565b6112ea565b82525050565b7f5af43d82803e903d91602b57fd5bf30000000000000000000000000000000000600082015250565b6000611349600f83611274565b915061135482611313565b600f82019050919050565b600081519050919050565b60006113758261135f565b61137f8185610e62565b935061138f818560208601610c76565b80840191505092915050565b60006113a6826112a8565b91506113b282856112fc565b6014820191506113c18261133c565b91506113cd828461136a565b9150819050939250505056fea2646970667358221220e70f7028be9c3cc8cc012283b61ab62dcaf3203ac455381cb4e668a4ff0d5e3e64736f6c63430008160033",
  "linkReferences": {},
  "deployedLinkReferences": {}
}